{
  "_format": "hh-sol-artifact-1",
  "contractName": "ConstructionTalent",
  "sourceName": "contracts/ConstructionTalent.sol",
  "abi": [
    {
      "inputs": [],
      "stateMutability": "nonpayable",
      "type": "constructor"
    },
    {
      "anonymous": false,
      "inputs": [
        {
          "indexed": true,
          "internalType": "address",
          "name": "previousOwner",
          "type": "address"
        },
        {
          "indexed": true,
          "internalType": "address",
          "name": "newOwner",
          "type": "address"
        }
      ],
      "name": "OwnershipTransferred",
      "type": "event"
    },
    {
      "anonymous": false,
      "inputs": [
        {
          "indexed": true,
          "internalType": "uint256",
          "name": "projectId",
          "type": "uint256"
        },
        {
          "indexed": true,
          "internalType": "address",
          "name": "talent",
          "type": "address"
        }
      ],
      "name": "ProjectAssigned",
      "type": "event"
    },
    {
      "anonymous": false,
      "inputs": [
        {
          "indexed": true,
          "internalType": "uint256",
          "name": "projectId",
          "type": "uint256"
        },
        {
          "indexed": false,
          "internalType": "string",
          "name": "title",
          "type": "string"
        }
      ],
      "name": "ProjectCreated",
      "type": "event"
    },
    {
      "anonymous": false,
      "inputs": [
        {
          "indexed": true,
          "internalType": "address",
          "name": "talent",
          "type": "address"
        },
        {
          "indexed": false,
          "internalType": "string",
          "name": "name",
          "type": "string"
        }
      ],
      "name": "TalentRegistered",
      "type": "event"
    },
    {
      "anonymous": false,
      "inputs": [
        {
          "indexed": true,
          "internalType": "address",
          "name": "talent",
          "type": "address"
        }
      ],
      "name": "TalentVerified",
      "type": "event"
    },
    {
      "inputs": [
        {
          "internalType": "uint256",
          "name": "_projectId",
          "type": "uint256"
        },
        {
          "internalType": "address",
          "name": "_talent",
          "type": "address"
        }
      ],
      "name": "assignProject",
      "outputs": [],
      "stateMutability": "nonpayable",
      "type": "function"
    },
    {
      "inputs": [
        {
          "internalType": "string",
          "name": "_title",
          "type": "string"
        },
        {
          "internalType": "string",
          "name": "_description",
          "type": "string"
        },
        {
          "internalType": "uint256",
          "name": "_budget",
          "type": "uint256"
        },
        {
          "internalType": "string[]",
          "name": "_requiredSkills",
          "type": "string[]"
        },
        {
          "internalType": "uint256",
          "name": "_deadline",
          "type": "uint256"
        }
      ],
      "name": "createProject",
      "outputs": [],
      "stateMutability": "nonpayable",
      "type": "function"
    },
    {
      "inputs": [
        {
          "internalType": "uint256",
          "name": "_projectId",
          "type": "uint256"
        }
      ],
      "name": "getProjectInfo",
      "outputs": [
        {
          "internalType": "string",
          "name": "title",
          "type": "string"
        },
        {
          "internalType": "string",
          "name": "description",
          "type": "string"
        },
        {
          "internalType": "uint256",
          "name": "budget",
          "type": "uint256"
        },
        {
          "internalType": "address",
          "name": "client",
          "type": "address"
        },
        {
          "internalType": "bool",
          "name": "isActive",
          "type": "bool"
        },
        {
          "internalType": "uint256",
          "name": "deadline_",
          "type": "uint256"
        }
      ],
      "stateMutability": "view",
      "type": "function"
    },
    {
      "inputs": [
        {
          "internalType": "address",
          "name": "_talent",
          "type": "address"
        }
      ],
      "name": "getTalentInfo",
      "outputs": [
        {
          "internalType": "string",
          "name": "name",
          "type": "string"
        },
        {
          "internalType": "string",
          "name": "gender",
          "type": "string"
        },
        {
          "internalType": "string",
          "name": "birthday",
          "type": "string"
        },
        {
          "internalType": "string",
          "name": "physicalAddress",
          "type": "string"
        },
        {
          "internalType": "string",
          "name": "governmentId",
          "type": "string"
        },
        {
          "internalType": "string",
          "name": "career",
          "type": "string"
        },
        {
          "internalType": "string[]",
          "name": "certifications",
          "type": "string[]"
        },
        {
          "internalType": "bool",
          "name": "isVerified",
          "type": "bool"
        },
        {
          "internalType": "uint256",
          "name": "rating",
          "type": "uint256"
        },
        {
          "internalType": "uint256",
          "name": "projectCount_",
          "type": "uint256"
        }
      ],
      "stateMutability": "view",
      "type": "function"
    },
    {
      "inputs": [],
      "name": "owner",
      "outputs": [
        {
          "internalType": "address",
          "name": "",
          "type": "address"
        }
      ],
      "stateMutability": "view",
      "type": "function"
    },
    {
      "inputs": [],
      "name": "projectCount",
      "outputs": [
        {
          "internalType": "uint256",
          "name": "",
          "type": "uint256"
        }
      ],
      "stateMutability": "view",
      "type": "function"
    },
    {
      "inputs": [
        {
          "internalType": "uint256",
          "name": "",
          "type": "uint256"
        }
      ],
      "name": "projects",
      "outputs": [
        {
          "internalType": "string",
          "name": "title",
          "type": "string"
        },
        {
          "internalType": "string",
          "name": "description",
          "type": "string"
        },
        {
          "internalType": "uint256",
          "name": "budget",
          "type": "uint256"
        },
        {
          "internalType": "address",
          "name": "client",
          "type": "address"
        },
        {
          "internalType": "bool",
          "name": "isActive",
          "type": "bool"
        },
        {
          "internalType": "uint256",
          "name": "deadline",
          "type": "uint256"
        }
      ],
      "stateMutability": "view",
      "type": "function"
    },
    {
      "inputs": [
        {
          "internalType": "string",
          "name": "_name",
          "type": "string"
        },
        {
          "internalType": "string",
          "name": "_gender",
          "type": "string"
        },
        {
          "internalType": "string",
          "name": "_birthday",
          "type": "string"
        },
        {
          "internalType": "string",
          "name": "_physicalAddress",
          "type": "string"
        },
        {
          "internalType": "string",
          "name": "_governmentId",
          "type": "string"
        },
        {
          "internalType": "string",
          "name": "_career",
          "type": "string"
        },
        {
          "internalType": "string[]",
          "name": "_certifications",
          "type": "string[]"
        }
      ],
      "name": "registerTalent",
      "outputs": [],
      "stateMutability": "nonpayable",
      "type": "function"
    },
    {
      "inputs": [],
      "name": "renounceOwnership",
      "outputs": [],
      "stateMutability": "nonpayable",
      "type": "function"
    },
    {
      "inputs": [
        {
          "internalType": "address",
          "name": "",
          "type": "address"
        }
      ],
      "name": "talents",
      "outputs": [
        {
          "internalType": "string",
          "name": "name",
          "type": "string"
        },
        {
          "internalType": "string",
          "name": "gender",
          "type": "string"
        },
        {
          "internalType": "string",
          "name": "birthday",
          "type": "string"
        },
        {
          "internalType": "string",
          "name": "physicalAddress",
          "type": "string"
        },
        {
          "internalType": "string",
          "name": "governmentId",
          "type": "string"
        },
        {
          "internalType": "string",
          "name": "career",
          "type": "string"
        },
        {
          "internalType": "bool",
          "name": "isVerified",
          "type": "bool"
        },
        {
          "internalType": "uint256",
          "name": "rating",
          "type": "uint256"
        },
        {
          "internalType": "uint256",
          "name": "projectCount",
          "type": "uint256"
        }
      ],
      "stateMutability": "view",
      "type": "function"
    },
    {
      "inputs": [
        {
          "internalType": "address",
          "name": "newOwner",
          "type": "address"
        }
      ],
      "name": "transferOwnership",
      "outputs": [],
      "stateMutability": "nonpayable",
      "type": "function"
    },
    {
      "inputs": [
        {
          "internalType": "address",
          "name": "_talent",
          "type": "address"
        }
      ],
      "name": "verifyTalent",
      "outputs": [],
      "stateMutability": "nonpayable",
      "type": "function"
    }
  ],
  "bytecode": "0x60806040523480156200001157600080fd5b5062000032620000266200003f60201b60201c565b6200004760201b60201c565b600180819055506200010b565b600033905090565b60008060009054906101000a900473ffffffffffffffffffffffffffffffffffffffff169050816000806101000a81548173ffffffffffffffffffffffffffffffffffffffff021916908373ffffffffffffffffffffffffffffffffffffffff1602179055508173ffffffffffffffffffffffffffffffffffffffff168173ffffffffffffffffffffffffffffffffffffffff167f8be0079c531659141344cd1fd0a4f28419497f9722a3daafe3b4186f6b6457e060405160405180910390a35050565b612da9806200011b6000396000f3fe608060405234801561001057600080fd5b50600436106100b45760003560e01c8063715018a611610071578063715018a6146101b55780638da5cb5b146101bf578063981e9c2b146101dd578063c0a23ff7146101f9578063f2fde38b14610215578063fabf596814610231576100b4565b80630cf73f29146100b9578063107046bd146100f257806329c0d508146101275780632e3e07fe1461015f57806336fbad261461017b5780634bbec2e414610199575b600080fd5b6100d360048036038101906100ce9190611a64565b610266565b6040516100e99a99989796959493929190611c61565b60405180910390f35b61010c60048036038101906101079190611d5a565b61072d565b60405161011e96959493929190611d96565b60405180910390f35b610141600480360381019061013c9190611a64565b6108a6565b60405161015699989796959493929190611e05565b60405180910390f35b61017960048036038101906101749190611a64565b610c31565b005b610183610d6b565b6040516101909190611ebc565b60405180910390f35b6101b360048036038101906101ae91906120f2565b610d71565b005b6101bd6110c4565b005b6101c76110d8565b6040516101d49190612258565b60405180910390f35b6101f760048036038101906101f29190612273565b611101565b005b610213600480360381019061020e91906122b3565b611366565b005b61022f600480360381019061022a9190611a64565b6115b4565b005b61024b60048036038101906102469190611d5a565b611637565b60405161025d96959493929190611d96565b60405180910390f35b6060806060806060806060600080600080600260008d73ffffffffffffffffffffffffffffffffffffffff1673ffffffffffffffffffffffffffffffffffffffff1681526020019081526020016000209050806000018160010182600201836003018460040185600501866006018760070160009054906101000a900460ff16886008015489600901548980546102fc906123b1565b80601f0160208091040260200160405190810160405280929190818152602001828054610328906123b1565b80156103755780601f1061034a57610100808354040283529160200191610375565b820191906000526020600020905b81548152906001019060200180831161035857829003601f168201915b50505050509950888054610388906123b1565b80601f01602080910402602001604051908101604052809291908181526020018280546103b4906123b1565b80156104015780601f106103d657610100808354040283529160200191610401565b820191906000526020600020905b8154815290600101906020018083116103e457829003601f168201915b50505050509850878054610414906123b1565b80601f0160208091040260200160405190810160405280929190818152602001828054610440906123b1565b801561048d5780601f106104625761010080835404028352916020019161048d565b820191906000526020600020905b81548152906001019060200180831161047057829003601f168201915b505050505097508680546104a0906123b1565b80601f01602080910402602001604051908101604052809291908181526020018280546104cc906123b1565b80156105195780601f106104ee57610100808354040283529160200191610519565b820191906000526020600020905b8154815290600101906020018083116104fc57829003601f168201915b5050505050965085805461052c906123b1565b80601f0160208091040260200160405190810160405280929190818152602001828054610558906123b1565b80156105a55780601f1061057a576101008083540402835291602001916105a5565b820191906000526020600020905b81548152906001019060200180831161058857829003601f168201915b505050505095508480546105b8906123b1565b80601f01602080910402602001604051908101604052809291908181526020018280546105e4906123b1565b80156106315780601f1061060657610100808354040283529160200191610631565b820191906000526020600020905b81548152906001019060200180831161061457829003601f168201915b5050505050945083805480602002602001604051908101604052809291908181526020016000905b82821015610705578382906000526020600020018054610678906123b1565b80601f01602080910402602001604051908101604052809291908181526020018280546106a4906123b1565b80156106f15780601f106106c6576101008083540402835291602001916106f1565b820191906000526020600020905b8154815290600101906020018083116106d457829003601f168201915b505050505081526020019060010190610659565b5050505093509a509a509a509a509a509a509a509a509a509a50509193959799509193959799565b6003602052806000526040600020600091509050806000018054610750906123b1565b80601f016020809104026020016040519081016040528092919081815260200182805461077c906123b1565b80156107c95780601f1061079e576101008083540402835291602001916107c9565b820191906000526020600020905b8154815290600101906020018083116107ac57829003601f168201915b5050505050908060010180546107de906123b1565b80601f016020809104026020016040519081016040528092919081815260200182805461080a906123b1565b80156108575780601f1061082c57610100808354040283529160200191610857565b820191906000526020600020905b81548152906001019060200180831161083a57829003601f168201915b5050505050908060020154908060030160009054906101000a900473ffffffffffffffffffffffffffffffffffffffff16908060030160149054906101000a900460ff16908060050154905086565b60026020528060005260406000206000915090508060000180546108c9906123b1565b80601f01602080910402602001604051908101604052809291908181526020018280546108f5906123b1565b80156109425780601f1061091757610100808354040283529160200191610942565b820191906000526020600020905b81548152906001019060200180831161092557829003601f168201915b505050505090806001018054610957906123b1565b80601f0160208091040260200160405190810160405280929190818152602001828054610983906123b1565b80156109d05780601f106109a5576101008083540402835291602001916109d0565b820191906000526020600020905b8154815290600101906020018083116109b357829003601f168201915b5050505050908060020180546109e5906123b1565b80601f0160208091040260200160405190810160405280929190818152602001828054610a11906123b1565b8015610a5e5780601f10610a3357610100808354040283529160200191610a5e565b820191906000526020600020905b815481529060010190602001808311610a4157829003601f168201915b505050505090806003018054610a73906123b1565b80601f0160208091040260200160405190810160405280929190818152602001828054610a9f906123b1565b8015610aec5780601f10610ac157610100808354040283529160200191610aec565b820191906000526020600020905b815481529060010190602001808311610acf57829003601f168201915b505050505090806004018054610b01906123b1565b80601f0160208091040260200160405190810160405280929190818152602001828054610b2d906123b1565b8015610b7a5780601f10610b4f57610100808354040283529160200191610b7a565b820191906000526020600020905b815481529060010190602001808311610b5d57829003601f168201915b505050505090806005018054610b8f906123b1565b80601f0160208091040260200160405190810160405280929190818152602001828054610bbb906123b1565b8015610c085780601f10610bdd57610100808354040283529160200191610c08565b820191906000526020600020905b815481529060010190602001808311610beb57829003601f168201915b5050505050908060070160009054906101000a900460ff16908060080154908060090154905089565b610c396117ce565b6000600260008373ffffffffffffffffffffffffffffffffffffffff1673ffffffffffffffffffffffffffffffffffffffff1681526020019081526020016000206000018054610c88906123b1565b905011610cca576040517f08c379a0000000000000000000000000000000000000000000000000000000008152600401610cc19061242e565b60405180910390fd5b6001600260008373ffffffffffffffffffffffffffffffffffffffff1673ffffffffffffffffffffffffffffffffffffffff16815260200190815260200160002060070160006101000a81548160ff0219169083151502179055508073ffffffffffffffffffffffffffffffffffffffff167f811e0dd9bfafabaee3ae45680295c4a31f783e635a2a2199c0f79e0fbd2b0ed560405160405180910390a250565b60045481565b6000875111610db5576040517f08c379a0000000000000000000000000000000000000000000000000000000008152600401610dac9061249a565b60405180910390fd5b6000865111610df9576040517f08c379a0000000000000000000000000000000000000000000000000000000008152600401610df090612506565b60405180910390fd5b6000855111610e3d576040517f08c379a0000000000000000000000000000000000000000000000000000000008152600401610e3490612572565b60405180910390fd5b6000845111610e81576040517f08c379a0000000000000000000000000000000000000000000000000000000008152600401610e78906125de565b60405180910390fd5b6000835111610ec5576040517f08c379a0000000000000000000000000000000000000000000000000000000008152600401610ebc9061264a565b60405180910390fd5b6000825111610f09576040517f08c379a0000000000000000000000000000000000000000000000000000000008152600401610f00906126b6565b60405180910390fd5b604051806101400160405280888152602001878152602001868152602001858152602001848152602001838152602001828152602001600015158152602001600081526020016000815250600260003373ffffffffffffffffffffffffffffffffffffffff1673ffffffffffffffffffffffffffffffffffffffff1681526020019081526020016000206000820151816000019081610fa89190612882565b506020820151816001019081610fbe9190612882565b506040820151816002019081610fd49190612882565b506060820151816003019081610fea9190612882565b5060808201518160040190816110009190612882565b5060a08201518160050190816110169190612882565b5060c0820151816006019080519060200190611033929190611918565b5060e08201518160070160006101000a81548160ff021916908315150217905550610100820151816008015561012082015181600901559050503373ffffffffffffffffffffffffffffffffffffffff167f8aaa7e65010b5fef229de41164868c878088a9c83257339eaae40eeb2f6732d5886040516110b39190612954565b60405180910390a250505050505050565b6110cc6117ce565b6110d6600061184c565b565b60008060009054906101000a900473ffffffffffffffffffffffffffffffffffffffff16905090565b6003600083815260200190815260200160002060030160149054906101000a900460ff16611164576040517f08c379a000000000000000000000000000000000000000000000000000000000815260040161115b906129c2565b60405180910390fd5b600260008273ffffffffffffffffffffffffffffffffffffffff1673ffffffffffffffffffffffffffffffffffffffff16815260200190815260200160002060070160009054906101000a900460ff166111f3576040517f08c379a00000000000000000000000000000000000000000000000000000000081526004016111ea90612a2e565b60405180910390fd5b3373ffffffffffffffffffffffffffffffffffffffff166003600084815260200190815260200160002060030160009054906101000a900473ffffffffffffffffffffffffffffffffffffffff1673ffffffffffffffffffffffffffffffffffffffff1614611297576040517f08c379a000000000000000000000000000000000000000000000000000000000815260040161128e90612a9a565b60405180910390fd5b600260008273ffffffffffffffffffffffffffffffffffffffff1673ffffffffffffffffffffffffffffffffffffffff16815260200190815260200160002060090160008154809291906112ea90612ae9565b919050555060006003600084815260200190815260200160002060030160146101000a81548160ff0219169083151502179055508073ffffffffffffffffffffffffffffffffffffffff16827fcf346ab23a9abaabaa0eb4683b99ec1de094de5e7255af7623cbe740d4c0f16260405160405180910390a35050565b60008551116113aa576040517f08c379a00000000000000000000000000000000000000000000000000000000081526004016113a190612b7d565b60405180910390fd5b600083116113ed576040517f08c379a00000000000000000000000000000000000000000000000000000000081526004016113e490612be9565b60405180910390fd5b42811161142f576040517f08c379a000000000000000000000000000000000000000000000000000000000815260040161142690612c55565b60405180910390fd5b6004600081548092919061144290612ae9565b9190505550600060045490506040518060e001604052808781526020018681526020018581526020013373ffffffffffffffffffffffffffffffffffffffff168152602001600115158152602001848152602001838152506003600083815260200190815260200160002060008201518160000190816114c29190612882565b5060208201518160010190816114d89190612882565b506040820151816002015560608201518160030160006101000a81548173ffffffffffffffffffffffffffffffffffffffff021916908373ffffffffffffffffffffffffffffffffffffffff16021790555060808201518160030160146101000a81548160ff02191690831515021790555060a0820151816004019080519060200190611566929190611918565b5060c08201518160050155905050807fed06d1e70f1faa0e1750def1b3a1d942390a8f47d03679c9025a1c38dc34fe7b876040516115a49190612954565b60405180910390a2505050505050565b6115bc6117ce565b600073ffffffffffffffffffffffffffffffffffffffff168173ffffffffffffffffffffffffffffffffffffffff160361162b576040517f08c379a000000000000000000000000000000000000000000000000000000000815260040161162290612ce7565b60405180910390fd5b6116348161184c565b50565b6060806000806000806000600360008981526020019081526020016000209050806000018160010182600201548360030160009054906101000a900473ffffffffffffffffffffffffffffffffffffffff168460030160149054906101000a900460ff1685600501548580546116ac906123b1565b80601f01602080910402602001604051908101604052809291908181526020018280546116d8906123b1565b80156117255780601f106116fa57610100808354040283529160200191611725565b820191906000526020600020905b81548152906001019060200180831161170857829003601f168201915b50505050509550848054611738906123b1565b80601f0160208091040260200160405190810160405280929190818152602001828054611764906123b1565b80156117b15780601f10611786576101008083540402835291602001916117b1565b820191906000526020600020905b81548152906001019060200180831161179457829003601f168201915b505050505094509650965096509650965096505091939550919395565b6117d6611910565b73ffffffffffffffffffffffffffffffffffffffff166117f46110d8565b73ffffffffffffffffffffffffffffffffffffffff161461184a576040517f08c379a000000000000000000000000000000000000000000000000000000000815260040161184190612d53565b60405180910390fd5b565b60008060009054906101000a900473ffffffffffffffffffffffffffffffffffffffff169050816000806101000a81548173ffffffffffffffffffffffffffffffffffffffff021916908373ffffffffffffffffffffffffffffffffffffffff1602179055508173ffffffffffffffffffffffffffffffffffffffff168173ffffffffffffffffffffffffffffffffffffffff167f8be0079c531659141344cd1fd0a4f28419497f9722a3daafe3b4186f6b6457e060405160405180910390a35050565b600033905090565b828054828255906000526020600020908101928215611960579160200282015b8281111561195f57825182908161194f9190612882565b5091602001919060010190611938565b5b50905061196d9190611971565b5090565b5b8082111561199157600081816119889190611995565b50600101611972565b5090565b5080546119a1906123b1565b6000825580601f106119b357506119d2565b601f0160209004906000526020600020908101906119d191906119d5565b5b50565b5b808211156119ee5760008160009055506001016119d6565b5090565b6000604051905090565b600080fd5b600080fd5b600073ffffffffffffffffffffffffffffffffffffffff82169050919050565b6000611a3182611a06565b9050919050565b611a4181611a26565b8114611a4c57600080fd5b50565b600081359050611a5e81611a38565b92915050565b600060208284031215611a7a57611a796119fc565b5b6000611a8884828501611a4f565b91505092915050565b600081519050919050565b600082825260208201905092915050565b60005b83811015611acb578082015181840152602081019050611ab0565b60008484015250505050565b6000601f19601f8301169050919050565b6000611af382611a91565b611afd8185611a9c565b9350611b0d818560208601611aad565b611b1681611ad7565b840191505092915050565b600081519050919050565b600082825260208201905092915050565b6000819050602082019050919050565b600082825260208201905092915050565b6000611b6982611a91565b611b738185611b4d565b9350611b83818560208601611aad565b611b8c81611ad7565b840191505092915050565b6000611ba38383611b5e565b905092915050565b6000602082019050919050565b6000611bc382611b21565b611bcd8185611b2c565b935083602082028501611bdf85611b3d565b8060005b85811015611c1b5784840389528151611bfc8582611b97565b9450611c0783611bab565b925060208a01995050600181019050611be3565b50829750879550505050505092915050565b60008115159050919050565b611c4281611c2d565b82525050565b6000819050919050565b611c5b81611c48565b82525050565b6000610140820190508181036000830152611c7c818d611ae8565b90508181036020830152611c90818c611ae8565b90508181036040830152611ca4818b611ae8565b90508181036060830152611cb8818a611ae8565b90508181036080830152611ccc8189611ae8565b905081810360a0830152611ce08188611ae8565b905081810360c0830152611cf48187611bb8565b9050611d0360e0830186611c39565b611d11610100830185611c52565b611d1f610120830184611c52565b9b9a5050505050505050505050565b611d3781611c48565b8114611d4257600080fd5b50565b600081359050611d5481611d2e565b92915050565b600060208284031215611d7057611d6f6119fc565b5b6000611d7e84828501611d45565b91505092915050565b611d9081611a26565b82525050565b600060c0820190508181036000830152611db08189611ae8565b90508181036020830152611dc48188611ae8565b9050611dd36040830187611c52565b611de06060830186611d87565b611ded6080830185611c39565b611dfa60a0830184611c52565b979650505050505050565b6000610120820190508181036000830152611e20818c611ae8565b90508181036020830152611e34818b611ae8565b90508181036040830152611e48818a611ae8565b90508181036060830152611e5c8189611ae8565b90508181036080830152611e708188611ae8565b905081810360a0830152611e848187611ae8565b9050611e9360c0830186611c39565b611ea060e0830185611c52565b611eae610100830184611c52565b9a9950505050505050505050565b6000602082019050611ed16000830184611c52565b92915050565b600080fd5b600080fd5b7f4e487b7100000000000000000000000000000000000000000000000000000000600052604160045260246000fd5b611f1982611ad7565b810181811067ffffffffffffffff82111715611f3857611f37611ee1565b5b80604052505050565b6000611f4b6119f2565b9050611f578282611f10565b919050565b600067ffffffffffffffff821115611f7757611f76611ee1565b5b611f8082611ad7565b9050602081019050919050565b82818337600083830152505050565b6000611faf611faa84611f5c565b611f41565b905082815260208101848484011115611fcb57611fca611edc565b5b611fd6848285611f8d565b509392505050565b600082601f830112611ff357611ff2611ed7565b5b8135612003848260208601611f9c565b91505092915050565b600067ffffffffffffffff82111561202757612026611ee1565b5b602082029050602081019050919050565b600080fd5b600061205061204b8461200c565b611f41565b9050808382526020820190506020840283018581111561207357612072612038565b5b835b818110156120ba57803567ffffffffffffffff81111561209857612097611ed7565b5b8086016120a58982611fde565b85526020850194505050602081019050612075565b5050509392505050565b600082601f8301126120d9576120d8611ed7565b5b81356120e984826020860161203d565b91505092915050565b600080600080600080600060e0888a031215612111576121106119fc565b5b600088013567ffffffffffffffff81111561212f5761212e611a01565b5b61213b8a828b01611fde565b975050602088013567ffffffffffffffff81111561215c5761215b611a01565b5b6121688a828b01611fde565b965050604088013567ffffffffffffffff81111561218957612188611a01565b5b6121958a828b01611fde565b955050606088013567ffffffffffffffff8111156121b6576121b5611a01565b5b6121c28a828b01611fde565b945050608088013567ffffffffffffffff8111156121e3576121e2611a01565b5b6121ef8a828b01611fde565b93505060a088013567ffffffffffffffff8111156122105761220f611a01565b5b61221c8a828b01611fde565b92505060c088013567ffffffffffffffff81111561223d5761223c611a01565b5b6122498a828b016120c4565b91505092959891949750929550565b600060208201905061226d6000830184611d87565b92915050565b6000806040838503121561228a576122896119fc565b5b600061229885828601611d45565b92505060206122a985828601611a4f565b9150509250929050565b600080600080600060a086880312156122cf576122ce6119fc565b5b600086013567ffffffffffffffff8111156122ed576122ec611a01565b5b6122f988828901611fde565b955050602086013567ffffffffffffffff81111561231a57612319611a01565b5b61232688828901611fde565b945050604061233788828901611d45565b935050606086013567ffffffffffffffff81111561235857612357611a01565b5b612364888289016120c4565b925050608061237588828901611d45565b9150509295509295909350565b7f4e487b7100000000000000000000000000000000000000000000000000000000600052602260045260246000fd5b600060028204905060018216806123c957607f821691505b6020821081036123dc576123db612382565b5b50919050565b7f54616c656e74206e6f7420726567697374657265640000000000000000000000600082015250565b6000612418601583611a9c565b9150612423826123e2565b602082019050919050565b600060208201905081810360008301526124478161240b565b9050919050565b7f4e616d652063616e6e6f7420626520656d707479000000000000000000000000600082015250565b6000612484601483611a9c565b915061248f8261244e565b602082019050919050565b600060208201905081810360008301526124b381612477565b9050919050565b7f47656e6465722063616e6e6f7420626520656d70747900000000000000000000600082015250565b60006124f0601683611a9c565b91506124fb826124ba565b602082019050919050565b6000602082019050818103600083015261251f816124e3565b9050919050565b7f42697274686461792063616e6e6f7420626520656d7074790000000000000000600082015250565b600061255c601883611a9c565b915061256782612526565b602082019050919050565b6000602082019050818103600083015261258b8161254f565b9050919050565b7f506879736963616c20616464726573732063616e6e6f7420626520656d707479600082015250565b60006125c8602083611a9c565b91506125d382612592565b602082019050919050565b600060208201905081810360008301526125f7816125bb565b9050919050565b7f476f7665726e6d656e742049442063616e6e6f7420626520656d707479000000600082015250565b6000612634601d83611a9c565b915061263f826125fe565b602082019050919050565b6000602082019050818103600083015261266381612627565b9050919050565b7f4361726565722063616e6e6f7420626520656d70747900000000000000000000600082015250565b60006126a0601683611a9c565b91506126ab8261266a565b602082019050919050565b600060208201905081810360008301526126cf81612693565b9050919050565b60008190508160005260206000209050919050565b60006020601f8301049050919050565b600082821b905092915050565b6000600883026127387fffffffffffffffffffffffffffffffffffffffffffffffffffffffffffffffff826126fb565b61274286836126fb565b95508019841693508086168417925050509392505050565b6000819050919050565b600061277f61277a61277584611c48565b61275a565b611c48565b9050919050565b6000819050919050565b61279983612764565b6127ad6127a582612786565b848454612708565b825550505050565b600090565b6127c26127b5565b6127cd818484612790565b505050565b5b818110156127f1576127e66000826127ba565b6001810190506127d3565b5050565b601f82111561283657612807816126d6565b612810846126eb565b8101602085101561281f578190505b61283361282b856126eb565b8301826127d2565b50505b505050565b600082821c905092915050565b60006128596000198460080261283b565b1980831691505092915050565b60006128728383612848565b9150826002028217905092915050565b61288b82611a91565b67ffffffffffffffff8111156128a4576128a3611ee1565b5b6128ae82546123b1565b6128b98282856127f5565b600060209050601f8311600181146128ec57600084156128da578287015190505b6128e48582612866565b86555061294c565b601f1984166128fa866126d6565b60005b82811015612922578489015182556001820191506020850194506020810190506128fd565b8683101561293f578489015161293b601f891682612848565b8355505b6001600288020188555050505b505050505050565b6000602082019050818103600083015261296e8184611ae8565b905092915050565b7f50726f6a656374206973206e6f74206163746976650000000000000000000000600082015250565b60006129ac601583611a9c565b91506129b782612976565b602082019050919050565b600060208201905081810360008301526129db8161299f565b9050919050565b7f54616c656e74206973206e6f7420766572696669656400000000000000000000600082015250565b6000612a18601683611a9c565b9150612a23826129e2565b602082019050919050565b60006020820190508181036000830152612a4781612a0b565b9050919050565b7f4f6e6c792070726f6a65637420636c69656e742063616e2061737369676e0000600082015250565b6000612a84601e83611a9c565b9150612a8f82612a4e565b602082019050919050565b60006020820190508181036000830152612ab381612a77565b9050919050565b7f4e487b7100000000000000000000000000000000000000000000000000000000600052601160045260246000fd5b6000612af482611c48565b91507fffffffffffffffffffffffffffffffffffffffffffffffffffffffffffffffff8203612b2657612b25612aba565b5b600182019050919050565b7f5469746c652063616e6e6f7420626520656d7074790000000000000000000000600082015250565b6000612b67601583611a9c565b9150612b7282612b31565b602082019050919050565b60006020820190508181036000830152612b9681612b5a565b9050919050565b7f427564676574206d7573742062652067726561746572207468616e2030000000600082015250565b6000612bd3601d83611a9c565b9150612bde82612b9d565b602082019050919050565b60006020820190508181036000830152612c0281612bc6565b9050919050565b7f446561646c696e65206d75737420626520696e20746865206675747572650000600082015250565b6000612c3f601e83611a9c565b9150612c4a82612c09565b602082019050919050565b60006020820190508181036000830152612c6e81612c32565b9050919050565b7f4f776e61626c653a206e6577206f776e657220697320746865207a65726f206160008201527f6464726573730000000000000000000000000000000000000000000000000000602082015250565b6000612cd1602683611a9c565b9150612cdc82612c75565b604082019050919050565b60006020820190508181036000830152612d0081612cc4565b9050919050565b7f4f776e61626c653a2063616c6c6572206973206e6f7420746865206f776e6572600082015250565b6000612d3d602083611a9c565b9150612d4882612d07565b602082019050919050565b60006020820190508181036000830152612d6c81612d30565b905091905056fea26469706673582212200ff923466a69f916bd34acf1c920b627b4330126a21c6444405a5781e1f6207564736f6c63430008130033",
  "linkReferences": {},
  "deployedLinkReferences": {}
}