{
  "_format": "hh-sol-artifact-1",
  "contractName": "ConstructionTalent",
  "sourceName": "contracts/ConstructionTalent.sol",
  "abi": [
    {
      "inputs": [],
      "stateMutability": "nonpayable",
      "type": "constructor"
    },
    {
      "anonymous": false,
      "inputs": [
        {
          "indexed": true,
          "internalType": "address",
          "name": "previousOwner",
          "type": "address"
        },
        {
          "indexed": true,
          "internalType": "address",
          "name": "newOwner",
          "type": "address"
        }
      ],
      "name": "OwnershipTransferred",
      "type": "event"
    },
    {
      "anonymous": false,
      "inputs": [
        {
          "indexed": true,
          "internalType": "uint256",
          "name": "projectId",
          "type": "uint256"
        },
        {
          "indexed": true,
          "internalType": "address",
          "name": "talent",
          "type": "address"
        }
      ],
      "name": "ProjectAssigned",
      "type": "event"
    },
    {
      "anonymous": false,
      "inputs": [
        {
          "indexed": true,
          "internalType": "uint256",
          "name": "projectId",
          "type": "uint256"
        },
        {
          "indexed": false,
          "internalType": "string",
          "name": "title",
          "type": "string"
        }
      ],
      "name": "ProjectCreated",
      "type": "event"
    },
    {
      "anonymous": false,
      "inputs": [
        {
          "indexed": true,
          "internalType": "address",
          "name": "talent",
          "type": "address"
        },
        {
          "indexed": false,
          "internalType": "string",
          "name": "name",
          "type": "string"
        }
      ],
      "name": "TalentRegistered",
      "type": "event"
    },
    {
      "anonymous": false,
      "inputs": [
        {
          "indexed": true,
          "internalType": "address",
          "name": "talent",
          "type": "address"
        }
      ],
      "name": "TalentVerified",
      "type": "event"
    },
    {
      "inputs": [
        {
          "internalType": "uint256",
          "name": "_projectId",
          "type": "uint256"
        },
        {
          "internalType": "address",
          "name": "_talent",
          "type": "address"
        }
      ],
      "name": "assignProject",
      "outputs": [],
      "stateMutability": "nonpayable",
      "type": "function"
    },
    {
      "inputs": [
        {
          "internalType": "string",
          "name": "_title",
          "type": "string"
        },
        {
          "internalType": "string",
          "name": "_description",
          "type": "string"
        },
        {
          "internalType": "uint256",
          "name": "_budget",
          "type": "uint256"
        },
        {
          "internalType": "uint256[]",
          "name": "_requiredSkills",
          "type": "uint256[]"
        },
        {
          "internalType": "uint256",
          "name": "_deadline",
          "type": "uint256"
        }
      ],
      "name": "createProject",
      "outputs": [],
      "stateMutability": "nonpayable",
      "type": "function"
    },
    {
      "inputs": [
        {
          "internalType": "uint256",
          "name": "_projectId",
          "type": "uint256"
        }
      ],
      "name": "getProjectInfo",
      "outputs": [
        {
          "internalType": "string",
          "name": "title",
          "type": "string"
        },
        {
          "internalType": "string",
          "name": "description",
          "type": "string"
        },
        {
          "internalType": "uint256",
          "name": "budget",
          "type": "uint256"
        },
        {
          "internalType": "address",
          "name": "client",
          "type": "address"
        },
        {
          "internalType": "bool",
          "name": "isActive",
          "type": "bool"
        },
        {
          "internalType": "uint256",
          "name": "deadline",
          "type": "uint256"
        }
      ],
      "stateMutability": "view",
      "type": "function"
    },
    {
      "inputs": [
        {
          "internalType": "address",
          "name": "_talent",
          "type": "address"
        }
      ],
      "name": "getTalentInfo",
      "outputs": [
        {
          "internalType": "string",
          "name": "name",
          "type": "string"
        },
        {
          "internalType": "string",
          "name": "skills",
          "type": "string"
        },
        {
          "internalType": "uint256",
          "name": "experience",
          "type": "uint256"
        },
        {
          "internalType": "bool",
          "name": "isVerified",
          "type": "bool"
        },
        {
          "internalType": "uint256",
          "name": "rating",
          "type": "uint256"
        },
        {
          "internalType": "uint256",
          "name": "projectCount",
          "type": "uint256"
        }
      ],
      "stateMutability": "view",
      "type": "function"
    },
    {
      "inputs": [],
      "name": "owner",
      "outputs": [
        {
          "internalType": "address",
          "name": "",
          "type": "address"
        }
      ],
      "stateMutability": "view",
      "type": "function"
    },
    {
      "inputs": [],
      "name": "projectCount",
      "outputs": [
        {
          "internalType": "uint256",
          "name": "",
          "type": "uint256"
        }
      ],
      "stateMutability": "view",
      "type": "function"
    },
    {
      "inputs": [
        {
          "internalType": "uint256",
          "name": "",
          "type": "uint256"
        }
      ],
      "name": "projects",
      "outputs": [
        {
          "internalType": "string",
          "name": "title",
          "type": "string"
        },
        {
          "internalType": "string",
          "name": "description",
          "type": "string"
        },
        {
          "internalType": "uint256",
          "name": "budget",
          "type": "uint256"
        },
        {
          "internalType": "address",
          "name": "client",
          "type": "address"
        },
        {
          "internalType": "bool",
          "name": "isActive",
          "type": "bool"
        },
        {
          "internalType": "uint256",
          "name": "deadline",
          "type": "uint256"
        }
      ],
      "stateMutability": "view",
      "type": "function"
    },
    {
      "inputs": [
        {
          "internalType": "string",
          "name": "_name",
          "type": "string"
        },
        {
          "internalType": "string",
          "name": "_skills",
          "type": "string"
        },
        {
          "internalType": "uint256",
          "name": "_experience",
          "type": "uint256"
        }
      ],
      "name": "registerTalent",
      "outputs": [],
      "stateMutability": "nonpayable",
      "type": "function"
    },
    {
      "inputs": [],
      "name": "renounceOwnership",
      "outputs": [],
      "stateMutability": "nonpayable",
      "type": "function"
    },
    {
      "inputs": [
        {
          "internalType": "address",
          "name": "",
          "type": "address"
        }
      ],
      "name": "talents",
      "outputs": [
        {
          "internalType": "string",
          "name": "name",
          "type": "string"
        },
        {
          "internalType": "string",
          "name": "skills",
          "type": "string"
        },
        {
          "internalType": "uint256",
          "name": "experience",
          "type": "uint256"
        },
        {
          "internalType": "bool",
          "name": "isVerified",
          "type": "bool"
        },
        {
          "internalType": "uint256",
          "name": "rating",
          "type": "uint256"
        },
        {
          "internalType": "uint256",
          "name": "projectCount",
          "type": "uint256"
        }
      ],
      "stateMutability": "view",
      "type": "function"
    },
    {
      "inputs": [
        {
          "internalType": "address",
          "name": "newOwner",
          "type": "address"
        }
      ],
      "name": "transferOwnership",
      "outputs": [],
      "stateMutability": "nonpayable",
      "type": "function"
    },
    {
      "inputs": [
        {
          "internalType": "address",
          "name": "_talent",
          "type": "address"
        }
      ],
      "name": "verifyTalent",
      "outputs": [],
      "stateMutability": "nonpayable",
      "type": "function"
    }
  ],
  "bytecode": "0x608060405234801561001057600080fd5b5061002d61002261003960201b60201c565b61004160201b60201c565b60018081905550610105565b600033905090565b60008060009054906101000a900473ffffffffffffffffffffffffffffffffffffffff169050816000806101000a81548173ffffffffffffffffffffffffffffffffffffffff021916908373ffffffffffffffffffffffffffffffffffffffff1602179055508173ffffffffffffffffffffffffffffffffffffffff168173ffffffffffffffffffffffffffffffffffffffff167f8be0079c531659141344cd1fd0a4f28419497f9722a3daafe3b4186f6b6457e060405160405180910390a35050565b6121d880620001156000396000f3fe608060405234801561001057600080fd5b50600436106100b45760003560e01c80638da5cb5b116100715780638da5cb5b1461019c578063981e9c2b146101ba57806398eb84f0146101d6578063f2490a76146101f2578063f2fde38b1461020e578063fabf59681461022a576100b4565b80630cf73f29146100b9578063107046bd146100ee57806329c0d508146101235780632e3e07fe1461015857806336fbad2614610174578063715018a614610192575b600080fd5b6100d360048036038101906100ce919061135d565b61025f565b6040516100e59695949392919061144e565b60405180910390f35b610108600480360381019061010391906114e9565b610402565b60405161011a96959493929190611525565b60405180910390f35b61013d6004803603810190610138919061135d565b61057b565b60405161014f9695949392919061144e565b60405180910390f35b610172600480360381019061016d919061135d565b6106d4565b005b61017c610802565b6040516101899190611594565b60405180910390f35b61019a610808565b005b6101a461081c565b6040516101b191906115af565b60405180910390f35b6101d460048036038101906101cf91906115ca565b610845565b005b6101f060048036038101906101eb919061173f565b610aaa565b005b61020c60048036038101906102079190611892565b610ccf565b005b6102286004803603810190610223919061135d565b610f1d565b005b610244600480360381019061023f91906114e9565b610fa0565b60405161025696959493929190611525565b60405180910390f35b6060806000806000806000600260008973ffffffffffffffffffffffffffffffffffffffff1673ffffffffffffffffffffffffffffffffffffffff1681526020019081526020016000209050806000018160010182600201548360030160009054906101000a900460ff16846005015485600601548580546102e090611990565b80601f016020809104026020016040519081016040528092919081815260200182805461030c90611990565b80156103595780601f1061032e57610100808354040283529160200191610359565b820191906000526020600020905b81548152906001019060200180831161033c57829003601f168201915b5050505050955084805461036c90611990565b80601f016020809104026020016040519081016040528092919081815260200182805461039890611990565b80156103e55780601f106103ba576101008083540402835291602001916103e5565b820191906000526020600020905b8154815290600101906020018083116103c857829003601f168201915b505050505094509650965096509650965096505091939550919395565b600360205280600052604060002060009150905080600001805461042590611990565b80601f016020809104026020016040519081016040528092919081815260200182805461045190611990565b801561049e5780601f106104735761010080835404028352916020019161049e565b820191906000526020600020905b81548152906001019060200180831161048157829003601f168201915b5050505050908060010180546104b390611990565b80601f01602080910402602001604051908101604052809291908181526020018280546104df90611990565b801561052c5780601f106105015761010080835404028352916020019161052c565b820191906000526020600020905b81548152906001019060200180831161050f57829003601f168201915b5050505050908060020154908060030160009054906101000a900473ffffffffffffffffffffffffffffffffffffffff16908060030160149054906101000a900460ff16908060050154905086565b600260205280600052604060002060009150905080600001805461059e90611990565b80601f01602080910402602001604051908101604052809291908181526020018280546105ca90611990565b80156106175780601f106105ec57610100808354040283529160200191610617565b820191906000526020600020905b8154815290600101906020018083116105fa57829003601f168201915b50505050509080600101805461062c90611990565b80601f016020809104026020016040519081016040528092919081815260200182805461065890611990565b80156106a55780601f1061067a576101008083540402835291602001916106a5565b820191906000526020600020905b81548152906001019060200180831161068857829003601f168201915b5050505050908060020154908060030160009054906101000a900460ff16908060050154908060060154905086565b6106dc611137565b6000600260008373ffffffffffffffffffffffffffffffffffffffff1673ffffffffffffffffffffffffffffffffffffffff1681526020019081526020016000206002015411610761576040517f08c379a000000000000000000000000000000000000000000000000000000000815260040161075890611a0d565b60405180910390fd5b6001600260008373ffffffffffffffffffffffffffffffffffffffff1673ffffffffffffffffffffffffffffffffffffffff16815260200190815260200160002060030160006101000a81548160ff0219169083151502179055508073ffffffffffffffffffffffffffffffffffffffff167f811e0dd9bfafabaee3ae45680295c4a31f783e635a2a2199c0f79e0fbd2b0ed560405160405180910390a250565b60045481565b610810611137565b61081a60006111b5565b565b60008060009054906101000a900473ffffffffffffffffffffffffffffffffffffffff16905090565b6003600083815260200190815260200160002060030160149054906101000a900460ff166108a8576040517f08c379a000000000000000000000000000000000000000000000000000000000815260040161089f90611a79565b60405180910390fd5b600260008273ffffffffffffffffffffffffffffffffffffffff1673ffffffffffffffffffffffffffffffffffffffff16815260200190815260200160002060030160009054906101000a900460ff16610937576040517f08c379a000000000000000000000000000000000000000000000000000000000815260040161092e90611ae5565b60405180910390fd5b3373ffffffffffffffffffffffffffffffffffffffff166003600084815260200190815260200160002060030160009054906101000a900473ffffffffffffffffffffffffffffffffffffffff1673ffffffffffffffffffffffffffffffffffffffff16146109db576040517f08c379a00000000000000000000000000000000000000000000000000000000081526004016109d290611b51565b60405180910390fd5b600260008273ffffffffffffffffffffffffffffffffffffffff1673ffffffffffffffffffffffffffffffffffffffff1681526020019081526020016000206006016000815480929190610a2e90611ba0565b919050555060006003600084815260200190815260200160002060030160146101000a81548160ff0219169083151502179055508073ffffffffffffffffffffffffffffffffffffffff16827fcf346ab23a9abaabaa0eb4683b99ec1de094de5e7255af7623cbe740d4c0f16260405160405180910390a35050565b6000835111610aee576040517f08c379a0000000000000000000000000000000000000000000000000000000008152600401610ae590611c34565b60405180910390fd5b6000825111610b32576040517f08c379a0000000000000000000000000000000000000000000000000000000008152600401610b2990611ca0565b60405180910390fd5b6040518060e00160405280848152602001838152602001828152602001600015158152602001600067ffffffffffffffff811115610b7357610b72611614565b5b604051908082528060200260200182016040528015610ba15781602001602082028036833780820191505090505b508152602001600081526020016000815250600260003373ffffffffffffffffffffffffffffffffffffffff1673ffffffffffffffffffffffffffffffffffffffff1681526020019081526020016000206000820151816000019081610c079190611e6c565b506020820151816001019081610c1d9190611e6c565b506040820151816002015560608201518160030160006101000a81548160ff0219169083151502179055506080820151816004019080519060200190610c64929190611281565b5060a0820151816005015560c082015181600601559050503373ffffffffffffffffffffffffffffffffffffffff167f8aaa7e65010b5fef229de41164868c878088a9c83257339eaae40eeb2f6732d584604051610cc29190611f3e565b60405180910390a2505050565b6000855111610d13576040517f08c379a0000000000000000000000000000000000000000000000000000000008152600401610d0a90611fac565b60405180910390fd5b60008311610d56576040517f08c379a0000000000000000000000000000000000000000000000000000000008152600401610d4d90612018565b60405180910390fd5b428111610d98576040517f08c379a0000000000000000000000000000000000000000000000000000000008152600401610d8f90612084565b60405180910390fd5b60046000815480929190610dab90611ba0565b9190505550600060045490506040518060e001604052808781526020018681526020018581526020013373ffffffffffffffffffffffffffffffffffffffff16815260200160011515815260200184815260200183815250600360008381526020019081526020016000206000820151816000019081610e2b9190611e6c565b506020820151816001019081610e419190611e6c565b506040820151816002015560608201518160030160006101000a81548173ffffffffffffffffffffffffffffffffffffffff021916908373ffffffffffffffffffffffffffffffffffffffff16021790555060808201518160030160146101000a81548160ff02191690831515021790555060a0820151816004019080519060200190610ecf929190611281565b5060c08201518160050155905050807fed06d1e70f1faa0e1750def1b3a1d942390a8f47d03679c9025a1c38dc34fe7b87604051610f0d9190611f3e565b60405180910390a2505050505050565b610f25611137565b600073ffffffffffffffffffffffffffffffffffffffff168173ffffffffffffffffffffffffffffffffffffffff1603610f94576040517f08c379a0000000000000000000000000000000000000000000000000000000008152600401610f8b90612116565b60405180910390fd5b610f9d816111b5565b50565b6060806000806000806000600360008981526020019081526020016000209050806000018160010182600201548360030160009054906101000a900473ffffffffffffffffffffffffffffffffffffffff168460030160149054906101000a900460ff16856005015485805461101590611990565b80601f016020809104026020016040519081016040528092919081815260200182805461104190611990565b801561108e5780601f106110635761010080835404028352916020019161108e565b820191906000526020600020905b81548152906001019060200180831161107157829003601f168201915b505050505095508480546110a190611990565b80601f01602080910402602001604051908101604052809291908181526020018280546110cd90611990565b801561111a5780601f106110ef5761010080835404028352916020019161111a565b820191906000526020600020905b8154815290600101906020018083116110fd57829003601f168201915b505050505094509650965096509650965096505091939550919395565b61113f611279565b73ffffffffffffffffffffffffffffffffffffffff1661115d61081c565b73ffffffffffffffffffffffffffffffffffffffff16146111b3576040517f08c379a00000000000000000000000000000000000000000000000000000000081526004016111aa90612182565b60405180910390fd5b565b60008060009054906101000a900473ffffffffffffffffffffffffffffffffffffffff169050816000806101000a81548173ffffffffffffffffffffffffffffffffffffffff021916908373ffffffffffffffffffffffffffffffffffffffff1602179055508173ffffffffffffffffffffffffffffffffffffffff168173ffffffffffffffffffffffffffffffffffffffff167f8be0079c531659141344cd1fd0a4f28419497f9722a3daafe3b4186f6b6457e060405160405180910390a35050565b600033905090565b8280548282559060005260206000209081019282156112bd579160200282015b828111156112bc5782518255916020019190600101906112a1565b5b5090506112ca91906112ce565b5090565b5b808211156112e75760008160009055506001016112cf565b5090565b6000604051905090565b600080fd5b600080fd5b600073ffffffffffffffffffffffffffffffffffffffff82169050919050565b600061132a826112ff565b9050919050565b61133a8161131f565b811461134557600080fd5b50565b60008135905061135781611331565b92915050565b600060208284031215611373576113726112f5565b5b600061138184828501611348565b91505092915050565b600081519050919050565b600082825260208201905092915050565b60005b838110156113c45780820151818401526020810190506113a9565b60008484015250505050565b6000601f19601f8301169050919050565b60006113ec8261138a565b6113f68185611395565b93506114068185602086016113a6565b61140f816113d0565b840191505092915050565b6000819050919050565b61142d8161141a565b82525050565b60008115159050919050565b61144881611433565b82525050565b600060c082019050818103600083015261146881896113e1565b9050818103602083015261147c81886113e1565b905061148b6040830187611424565b611498606083018661143f565b6114a56080830185611424565b6114b260a0830184611424565b979650505050505050565b6114c68161141a565b81146114d157600080fd5b50565b6000813590506114e3816114bd565b92915050565b6000602082840312156114ff576114fe6112f5565b5b600061150d848285016114d4565b91505092915050565b61151f8161131f565b82525050565b600060c082019050818103600083015261153f81896113e1565b9050818103602083015261155381886113e1565b90506115626040830187611424565b61156f6060830186611516565b61157c608083018561143f565b61158960a0830184611424565b979650505050505050565b60006020820190506115a96000830184611424565b92915050565b60006020820190506115c46000830184611516565b92915050565b600080604083850312156115e1576115e06112f5565b5b60006115ef858286016114d4565b925050602061160085828601611348565b9150509250929050565b600080fd5b600080fd5b7f4e487b7100000000000000000000000000000000000000000000000000000000600052604160045260246000fd5b61164c826113d0565b810181811067ffffffffffffffff8211171561166b5761166a611614565b5b80604052505050565b600061167e6112eb565b905061168a8282611643565b919050565b600067ffffffffffffffff8211156116aa576116a9611614565b5b6116b3826113d0565b9050602081019050919050565b82818337600083830152505050565b60006116e26116dd8461168f565b611674565b9050828152602081018484840111156116fe576116fd61160f565b5b6117098482856116c0565b509392505050565b600082601f8301126117265761172561160a565b5b81356117368482602086016116cf565b91505092915050565b600080600060608486031215611758576117576112f5565b5b600084013567ffffffffffffffff811115611776576117756112fa565b5b61178286828701611711565b935050602084013567ffffffffffffffff8111156117a3576117a26112fa565b5b6117af86828701611711565b92505060406117c0868287016114d4565b9150509250925092565b600067ffffffffffffffff8211156117e5576117e4611614565b5b602082029050602081019050919050565b600080fd5b600061180e611809846117ca565b611674565b90508083825260208201905060208402830185811115611831576118306117f6565b5b835b8181101561185a578061184688826114d4565b845260208401935050602081019050611833565b5050509392505050565b600082601f8301126118795761187861160a565b5b81356118898482602086016117fb565b91505092915050565b600080600080600060a086880312156118ae576118ad6112f5565b5b600086013567ffffffffffffffff8111156118cc576118cb6112fa565b5b6118d888828901611711565b955050602086013567ffffffffffffffff8111156118f9576118f86112fa565b5b61190588828901611711565b9450506040611916888289016114d4565b935050606086013567ffffffffffffffff811115611937576119366112fa565b5b61194388828901611864565b9250506080611954888289016114d4565b9150509295509295909350565b7f4e487b7100000000000000000000000000000000000000000000000000000000600052602260045260246000fd5b600060028204905060018216806119a857607f821691505b6020821081036119bb576119ba611961565b5b50919050565b7f54616c656e74206e6f7420726567697374657265640000000000000000000000600082015250565b60006119f7601583611395565b9150611a02826119c1565b602082019050919050565b60006020820190508181036000830152611a26816119ea565b9050919050565b7f50726f6a656374206973206e6f74206163746976650000000000000000000000600082015250565b6000611a63601583611395565b9150611a6e82611a2d565b602082019050919050565b60006020820190508181036000830152611a9281611a56565b9050919050565b7f54616c656e74206973206e6f7420766572696669656400000000000000000000600082015250565b6000611acf601683611395565b9150611ada82611a99565b602082019050919050565b60006020820190508181036000830152611afe81611ac2565b9050919050565b7f4f6e6c792070726f6a65637420636c69656e742063616e2061737369676e0000600082015250565b6000611b3b601e83611395565b9150611b4682611b05565b602082019050919050565b60006020820190508181036000830152611b6a81611b2e565b9050919050565b7f4e487b7100000000000000000000000000000000000000000000000000000000600052601160045260246000fd5b6000611bab8261141a565b91507fffffffffffffffffffffffffffffffffffffffffffffffffffffffffffffffff8203611bdd57611bdc611b71565b5b600182019050919050565b7f4e616d652063616e6e6f7420626520656d707479000000000000000000000000600082015250565b6000611c1e601483611395565b9150611c2982611be8565b602082019050919050565b60006020820190508181036000830152611c4d81611c11565b9050919050565b7f536b696c6c732063616e6e6f7420626520656d70747900000000000000000000600082015250565b6000611c8a601683611395565b9150611c9582611c54565b602082019050919050565b60006020820190508181036000830152611cb981611c7d565b9050919050565b60008190508160005260206000209050919050565b60006020601f8301049050919050565b600082821b905092915050565b600060088302611d227fffffffffffffffffffffffffffffffffffffffffffffffffffffffffffffffff82611ce5565b611d2c8683611ce5565b95508019841693508086168417925050509392505050565b6000819050919050565b6000611d69611d64611d5f8461141a565b611d44565b61141a565b9050919050565b6000819050919050565b611d8383611d4e565b611d97611d8f82611d70565b848454611cf2565b825550505050565b600090565b611dac611d9f565b611db7818484611d7a565b505050565b5b81811015611ddb57611dd0600082611da4565b600181019050611dbd565b5050565b601f821115611e2057611df181611cc0565b611dfa84611cd5565b81016020851015611e09578190505b611e1d611e1585611cd5565b830182611dbc565b50505b505050565b600082821c905092915050565b6000611e4360001984600802611e25565b1980831691505092915050565b6000611e5c8383611e32565b9150826002028217905092915050565b611e758261138a565b67ffffffffffffffff811115611e8e57611e8d611614565b5b611e988254611990565b611ea3828285611ddf565b600060209050601f831160018114611ed65760008415611ec4578287015190505b611ece8582611e50565b865550611f36565b601f198416611ee486611cc0565b60005b82811015611f0c57848901518255600182019150602085019450602081019050611ee7565b86831015611f295784890151611f25601f891682611e32565b8355505b6001600288020188555050505b505050505050565b60006020820190508181036000830152611f5881846113e1565b905092915050565b7f5469746c652063616e6e6f7420626520656d7074790000000000000000000000600082015250565b6000611f96601583611395565b9150611fa182611f60565b602082019050919050565b60006020820190508181036000830152611fc581611f89565b9050919050565b7f427564676574206d7573742062652067726561746572207468616e2030000000600082015250565b6000612002601d83611395565b915061200d82611fcc565b602082019050919050565b6000602082019050818103600083015261203181611ff5565b9050919050565b7f446561646c696e65206d75737420626520696e20746865206675747572650000600082015250565b600061206e601e83611395565b915061207982612038565b602082019050919050565b6000602082019050818103600083015261209d81612061565b9050919050565b7f4f776e61626c653a206e6577206f776e657220697320746865207a65726f206160008201527f6464726573730000000000000000000000000000000000000000000000000000602082015250565b6000612100602683611395565b915061210b826120a4565b604082019050919050565b6000602082019050818103600083015261212f816120f3565b9050919050565b7f4f776e61626c653a2063616c6c6572206973206e6f7420746865206f776e6572600082015250565b600061216c602083611395565b915061217782612136565b602082019050919050565b6000602082019050818103600083015261219b8161215f565b905091905056fea2646970667358221220d5f2769cf710acafbca10c14762ae60aded711bf26d2e18800156bb3834e784064736f6c63430008130033",
  "linkReferences": {},
  "deployedLinkReferences": {}
}