{
  "_format": "hh-sol-artifact-1",
  "contractName": "ConstructionTalent",
  "sourceName": "contracts/ConstructionTalent.sol",
  "abi": [
    {
      "inputs": [],
      "stateMutability": "nonpayable",
      "type": "constructor"
    },
    {
      "anonymous": false,
      "inputs": [
        {
          "indexed": true,
          "internalType": "address",
          "name": "previousOwner",
          "type": "address"
        },
        {
          "indexed": true,
          "internalType": "address",
          "name": "newOwner",
          "type": "address"
        }
      ],
      "name": "OwnershipTransferred",
      "type": "event"
    },
    {
      "anonymous": false,
      "inputs": [
        {
          "indexed": true,
          "internalType": "uint256",
          "name": "projectId",
          "type": "uint256"
        },
        {
          "indexed": true,
          "internalType": "address",
          "name": "talent",
          "type": "address"
        }
      ],
      "name": "ProjectAssigned",
      "type": "event"
    },
    {
      "anonymous": false,
      "inputs": [
        {
          "indexed": true,
          "internalType": "uint256",
          "name": "projectId",
          "type": "uint256"
        },
        {
          "indexed": true,
          "internalType": "address",
          "name": "client",
          "type": "address"
        }
      ],
      "name": "ProjectClosed",
      "type": "event"
    },
    {
      "anonymous": false,
      "inputs": [
        {
          "indexed": true,
          "internalType": "uint256",
          "name": "projectId",
          "type": "uint256"
        },
        {
          "indexed": false,
          "internalType": "string",
          "name": "title",
          "type": "string"
        }
      ],
      "name": "ProjectCreated",
      "type": "event"
    },
    {
      "anonymous": false,
      "inputs": [
        {
          "indexed": true,
          "internalType": "address",
          "name": "talent",
          "type": "address"
        },
        {
          "indexed": false,
          "internalType": "string",
          "name": "name",
          "type": "string"
        }
      ],
      "name": "TalentRegistered",
      "type": "event"
    },
    {
      "anonymous": false,
      "inputs": [
        {
          "indexed": true,
          "internalType": "address",
          "name": "talent",
          "type": "address"
        }
      ],
      "name": "TalentVerified",
      "type": "event"
    },
    {
      "inputs": [
        {
          "internalType": "uint256",
          "name": "_projectId",
          "type": "uint256"
        },
        {
          "internalType": "address",
          "name": "_talent",
          "type": "address"
        }
      ],
      "name": "assignProject",
      "outputs": [],
      "stateMutability": "nonpayable",
      "type": "function"
    },
    {
      "inputs": [
        {
          "internalType": "uint256",
          "name": "_projectId",
          "type": "uint256"
        }
      ],
      "name": "closeProject",
      "outputs": [],
      "stateMutability": "nonpayable",
      "type": "function"
    },
    {
      "inputs": [
        {
          "internalType": "string",
          "name": "_title",
          "type": "string"
        },
        {
          "internalType": "string",
          "name": "_description",
          "type": "string"
        },
        {
          "internalType": "uint256",
          "name": "_budget",
          "type": "uint256"
        },
        {
          "internalType": "string[]",
          "name": "_requiredSkills",
          "type": "string[]"
        },
        {
          "internalType": "uint256",
          "name": "_deadline",
          "type": "uint256"
        }
      ],
      "name": "createProject",
      "outputs": [],
      "stateMutability": "nonpayable",
      "type": "function"
    },
    {
      "inputs": [
        {
          "internalType": "uint256",
          "name": "_projectId",
          "type": "uint256"
        }
      ],
      "name": "getProjectInfo",
      "outputs": [
        {
          "internalType": "string",
          "name": "title",
          "type": "string"
        },
        {
          "internalType": "string",
          "name": "description",
          "type": "string"
        },
        {
          "internalType": "uint256",
          "name": "budget",
          "type": "uint256"
        },
        {
          "internalType": "address",
          "name": "client",
          "type": "address"
        },
        {
          "internalType": "bool",
          "name": "isActive",
          "type": "bool"
        },
        {
          "internalType": "string",
          "name": "status",
          "type": "string"
        },
        {
          "internalType": "uint256",
          "name": "deadline",
          "type": "uint256"
        },
        {
          "internalType": "string[]",
          "name": "requiredSkills",
          "type": "string[]"
        }
      ],
      "stateMutability": "view",
      "type": "function"
    },
    {
      "inputs": [
        {
          "internalType": "address",
          "name": "_talent",
          "type": "address"
        }
      ],
      "name": "getTalentInfo",
      "outputs": [
        {
          "internalType": "string",
          "name": "name",
          "type": "string"
        },
        {
          "internalType": "string",
          "name": "gender",
          "type": "string"
        },
        {
          "internalType": "string",
          "name": "birthday",
          "type": "string"
        },
        {
          "internalType": "string",
          "name": "physicalAddress",
          "type": "string"
        },
        {
          "internalType": "string",
          "name": "governmentId",
          "type": "string"
        },
        {
          "internalType": "string",
          "name": "career",
          "type": "string"
        },
        {
          "internalType": "string[]",
          "name": "certifications",
          "type": "string[]"
        },
        {
          "internalType": "bool",
          "name": "isVerified",
          "type": "bool"
        },
        {
          "internalType": "uint256",
          "name": "rating",
          "type": "uint256"
        },
        {
          "internalType": "uint256",
          "name": "projectCount_",
          "type": "uint256"
        }
      ],
      "stateMutability": "view",
      "type": "function"
    },
    {
      "inputs": [],
      "name": "owner",
      "outputs": [
        {
          "internalType": "address",
          "name": "",
          "type": "address"
        }
      ],
      "stateMutability": "view",
      "type": "function"
    },
    {
      "inputs": [],
      "name": "projectCount",
      "outputs": [
        {
          "internalType": "uint256",
          "name": "",
          "type": "uint256"
        }
      ],
      "stateMutability": "view",
      "type": "function"
    },
    {
      "inputs": [
        {
          "internalType": "uint256",
          "name": "",
          "type": "uint256"
        }
      ],
      "name": "projects",
      "outputs": [
        {
          "internalType": "string",
          "name": "title",
          "type": "string"
        },
        {
          "internalType": "string",
          "name": "description",
          "type": "string"
        },
        {
          "internalType": "uint256",
          "name": "budget",
          "type": "uint256"
        },
        {
          "internalType": "address",
          "name": "client",
          "type": "address"
        },
        {
          "internalType": "bool",
          "name": "isActive",
          "type": "bool"
        },
        {
          "internalType": "string",
          "name": "status",
          "type": "string"
        },
        {
          "internalType": "uint256",
          "name": "deadline",
          "type": "uint256"
        }
      ],
      "stateMutability": "view",
      "type": "function"
    },
    {
      "inputs": [
        {
          "internalType": "string",
          "name": "_name",
          "type": "string"
        },
        {
          "internalType": "string",
          "name": "_gender",
          "type": "string"
        },
        {
          "internalType": "string",
          "name": "_birthday",
          "type": "string"
        },
        {
          "internalType": "string",
          "name": "_physicalAddress",
          "type": "string"
        },
        {
          "internalType": "string",
          "name": "_governmentId",
          "type": "string"
        },
        {
          "internalType": "string",
          "name": "_career",
          "type": "string"
        },
        {
          "internalType": "string[]",
          "name": "_certifications",
          "type": "string[]"
        }
      ],
      "name": "registerTalent",
      "outputs": [],
      "stateMutability": "nonpayable",
      "type": "function"
    },
    {
      "inputs": [],
      "name": "renounceOwnership",
      "outputs": [],
      "stateMutability": "nonpayable",
      "type": "function"
    },
    {
      "inputs": [
        {
          "internalType": "address",
          "name": "",
          "type": "address"
        }
      ],
      "name": "talents",
      "outputs": [
        {
          "internalType": "string",
          "name": "name",
          "type": "string"
        },
        {
          "internalType": "string",
          "name": "gender",
          "type": "string"
        },
        {
          "internalType": "string",
          "name": "birthday",
          "type": "string"
        },
        {
          "internalType": "string",
          "name": "physicalAddress",
          "type": "string"
        },
        {
          "internalType": "string",
          "name": "governmentId",
          "type": "string"
        },
        {
          "internalType": "string",
          "name": "career",
          "type": "string"
        },
        {
          "internalType": "bool",
          "name": "isVerified",
          "type": "bool"
        },
        {
          "internalType": "uint256",
          "name": "rating",
          "type": "uint256"
        },
        {
          "internalType": "uint256",
          "name": "projectCount",
          "type": "uint256"
        }
      ],
      "stateMutability": "view",
      "type": "function"
    },
    {
      "inputs": [
        {
          "internalType": "address",
          "name": "newOwner",
          "type": "address"
        }
      ],
      "name": "transferOwnership",
      "outputs": [],
      "stateMutability": "nonpayable",
      "type": "function"
    },
    {
      "inputs": [
        {
          "internalType": "address",
          "name": "_talent",
          "type": "address"
        }
      ],
      "name": "verifyTalent",
      "outputs": [],
      "stateMutability": "nonpayable",
      "type": "function"
    }
  ],
  "bytecode": "0x60806040523480156200001157600080fd5b5062000032620000266200003f60201b60201c565b6200004760201b60201c565b600180819055506200010b565b600033905090565b60008060009054906101000a900473ffffffffffffffffffffffffffffffffffffffff169050816000806101000a81548173ffffffffffffffffffffffffffffffffffffffff021916908373ffffffffffffffffffffffffffffffffffffffff1602179055508173ffffffffffffffffffffffffffffffffffffffff168173ffffffffffffffffffffffffffffffffffffffff167f8be0079c531659141344cd1fd0a4f28419497f9722a3daafe3b4186f6b6457e060405160405180910390a35050565b6132f3806200011b6000396000f3fe608060405234801561001057600080fd5b50600436106100cf5760003560e01c8063715018a61161008c578063981e9c2b11610066578063981e9c2b14610215578063c0a23ff714610231578063f2fde38b1461024d578063fabf596814610269576100cf565b8063715018a6146101d15780638da5cb5b146101db57806393dc12e6146101f9576100cf565b80630cf73f29146100d4578063107046bd1461010d57806329c0d508146101435780632e3e07fe1461017b57806336fbad26146101975780634bbec2e4146101b5575b600080fd5b6100ee60048036038101906100e99190611e6d565b6102a0565b6040516101049a9998979695949392919061206a565b60405180910390f35b61012760048036038101906101229190612163565b610767565b60405161013a979695949392919061219f565b60405180910390f35b61015d60048036038101906101589190611e6d565b61096e565b60405161017299989796959493929190612223565b60405180910390f35b61019560048036038101906101909190611e6d565b610cf9565b005b61019f610e33565b6040516101ac91906122da565b60405180910390f35b6101cf60048036038101906101ca9190612510565b610e39565b005b6101d961118c565b005b6101e36111a0565b6040516101f09190612676565b60405180910390f35b610213600480360381019061020e9190612163565b6111c9565b005b61022f600480360381019061022a9190612691565b611346565b005b61024b600480360381019061024691906126d1565b6115ab565b005b61026760048036038101906102629190611e6d565b61184b565b005b610283600480360381019061027e9190612163565b6118ce565b6040516102979897969594939291906127a0565b60405180910390f35b6060806060806060806060600080600080600260008d73ffffffffffffffffffffffffffffffffffffffff1673ffffffffffffffffffffffffffffffffffffffff1681526020019081526020016000209050806000018160010182600201836003018460040185600501866006018760070160009054906101000a900460ff168860080154896009015489805461033690612869565b80601f016020809104026020016040519081016040528092919081815260200182805461036290612869565b80156103af5780601f10610384576101008083540402835291602001916103af565b820191906000526020600020905b81548152906001019060200180831161039257829003601f168201915b505050505099508880546103c290612869565b80601f01602080910402602001604051908101604052809291908181526020018280546103ee90612869565b801561043b5780601f106104105761010080835404028352916020019161043b565b820191906000526020600020905b81548152906001019060200180831161041e57829003601f168201915b5050505050985087805461044e90612869565b80601f016020809104026020016040519081016040528092919081815260200182805461047a90612869565b80156104c75780601f1061049c576101008083540402835291602001916104c7565b820191906000526020600020905b8154815290600101906020018083116104aa57829003601f168201915b505050505097508680546104da90612869565b80601f016020809104026020016040519081016040528092919081815260200182805461050690612869565b80156105535780601f1061052857610100808354040283529160200191610553565b820191906000526020600020905b81548152906001019060200180831161053657829003601f168201915b5050505050965085805461056690612869565b80601f016020809104026020016040519081016040528092919081815260200182805461059290612869565b80156105df5780601f106105b4576101008083540402835291602001916105df565b820191906000526020600020905b8154815290600101906020018083116105c257829003601f168201915b505050505095508480546105f290612869565b80601f016020809104026020016040519081016040528092919081815260200182805461061e90612869565b801561066b5780601f106106405761010080835404028352916020019161066b565b820191906000526020600020905b81548152906001019060200180831161064e57829003601f168201915b5050505050945083805480602002602001604051908101604052809291908181526020016000905b8282101561073f5783829060005260206000200180546106b290612869565b80601f01602080910402602001604051908101604052809291908181526020018280546106de90612869565b801561072b5780601f106107005761010080835404028352916020019161072b565b820191906000526020600020905b81548152906001019060200180831161070e57829003601f168201915b505050505081526020019060010190610693565b5050505093509a509a509a509a509a509a509a509a509a509a50509193959799509193959799565b600360205280600052604060002060009150905080600001805461078a90612869565b80601f01602080910402602001604051908101604052809291908181526020018280546107b690612869565b80156108035780601f106107d857610100808354040283529160200191610803565b820191906000526020600020905b8154815290600101906020018083116107e657829003601f168201915b50505050509080600101805461081890612869565b80601f016020809104026020016040519081016040528092919081815260200182805461084490612869565b80156108915780601f1061086657610100808354040283529160200191610891565b820191906000526020600020905b81548152906001019060200180831161087457829003601f168201915b5050505050908060020154908060030160009054906101000a900473ffffffffffffffffffffffffffffffffffffffff16908060030160149054906101000a900460ff16908060040180546108e590612869565b80601f016020809104026020016040519081016040528092919081815260200182805461091190612869565b801561095e5780601f106109335761010080835404028352916020019161095e565b820191906000526020600020905b81548152906001019060200180831161094157829003601f168201915b5050505050908060060154905087565b600260205280600052604060002060009150905080600001805461099190612869565b80601f01602080910402602001604051908101604052809291908181526020018280546109bd90612869565b8015610a0a5780601f106109df57610100808354040283529160200191610a0a565b820191906000526020600020905b8154815290600101906020018083116109ed57829003601f168201915b505050505090806001018054610a1f90612869565b80601f0160208091040260200160405190810160405280929190818152602001828054610a4b90612869565b8015610a985780601f10610a6d57610100808354040283529160200191610a98565b820191906000526020600020905b815481529060010190602001808311610a7b57829003601f168201915b505050505090806002018054610aad90612869565b80601f0160208091040260200160405190810160405280929190818152602001828054610ad990612869565b8015610b265780601f10610afb57610100808354040283529160200191610b26565b820191906000526020600020905b815481529060010190602001808311610b0957829003601f168201915b505050505090806003018054610b3b90612869565b80601f0160208091040260200160405190810160405280929190818152602001828054610b6790612869565b8015610bb45780601f10610b8957610100808354040283529160200191610bb4565b820191906000526020600020905b815481529060010190602001808311610b9757829003601f168201915b505050505090806004018054610bc990612869565b80601f0160208091040260200160405190810160405280929190818152602001828054610bf590612869565b8015610c425780601f10610c1757610100808354040283529160200191610c42565b820191906000526020600020905b815481529060010190602001808311610c2557829003601f168201915b505050505090806005018054610c5790612869565b80601f0160208091040260200160405190810160405280929190818152602001828054610c8390612869565b8015610cd05780601f10610ca557610100808354040283529160200191610cd0565b820191906000526020600020905b815481529060010190602001808311610cb357829003601f168201915b5050505050908060070160009054906101000a900460ff16908060080154908060090154905089565b610d01611bd7565b6000600260008373ffffffffffffffffffffffffffffffffffffffff1673ffffffffffffffffffffffffffffffffffffffff1681526020019081526020016000206000018054610d5090612869565b905011610d92576040517f08c379a0000000000000000000000000000000000000000000000000000000008152600401610d89906128e6565b60405180910390fd5b6001600260008373ffffffffffffffffffffffffffffffffffffffff1673ffffffffffffffffffffffffffffffffffffffff16815260200190815260200160002060070160006101000a81548160ff0219169083151502179055508073ffffffffffffffffffffffffffffffffffffffff167f811e0dd9bfafabaee3ae45680295c4a31f783e635a2a2199c0f79e0fbd2b0ed560405160405180910390a250565b60045481565b6000875111610e7d576040517f08c379a0000000000000000000000000000000000000000000000000000000008152600401610e7490612952565b60405180910390fd5b6000865111610ec1576040517f08c379a0000000000000000000000000000000000000000000000000000000008152600401610eb8906129be565b60405180910390fd5b6000855111610f05576040517f08c379a0000000000000000000000000000000000000000000000000000000008152600401610efc90612a2a565b60405180910390fd5b6000845111610f49576040517f08c379a0000000000000000000000000000000000000000000000000000000008152600401610f4090612a96565b60405180910390fd5b6000835111610f8d576040517f08c379a0000000000000000000000000000000000000000000000000000000008152600401610f8490612b02565b60405180910390fd5b6000825111610fd1576040517f08c379a0000000000000000000000000000000000000000000000000000000008152600401610fc890612b6e565b60405180910390fd5b604051806101400160405280888152602001878152602001868152602001858152602001848152602001838152602001828152602001600015158152602001600081526020016000815250600260003373ffffffffffffffffffffffffffffffffffffffff1673ffffffffffffffffffffffffffffffffffffffff16815260200190815260200160002060008201518160000190816110709190612d3a565b5060208201518160010190816110869190612d3a565b50604082015181600201908161109c9190612d3a565b5060608201518160030190816110b29190612d3a565b5060808201518160040190816110c89190612d3a565b5060a08201518160050190816110de9190612d3a565b5060c08201518160060190805190602001906110fb929190611d21565b5060e08201518160070160006101000a81548160ff021916908315150217905550610100820151816008015561012082015181600901559050503373ffffffffffffffffffffffffffffffffffffffff167f8aaa7e65010b5fef229de41164868c878088a9c83257339eaae40eeb2f6732d58860405161117b9190612e0c565b60405180910390a250505050505050565b611194611bd7565b61119e6000611c55565b565b60008060009054906101000a900473ffffffffffffffffffffffffffffffffffffffff16905090565b6003600082815260200190815260200160002060030160149054906101000a900460ff1661122c576040517f08c379a000000000000000000000000000000000000000000000000000000000815260040161122390612e7a565b60405180910390fd5b3373ffffffffffffffffffffffffffffffffffffffff166003600083815260200190815260200160002060030160009054906101000a900473ffffffffffffffffffffffffffffffffffffffff1673ffffffffffffffffffffffffffffffffffffffff16146112d0576040517f08c379a00000000000000000000000000000000000000000000000000000000081526004016112c790612f0c565b60405180910390fd5b60006003600083815260200190815260200160002060030160146101000a81548160ff0219169083151502179055503373ffffffffffffffffffffffffffffffffffffffff16817f9882f89997b126abf6b14b14e880007ed93dc9aa0b2efdab5998a2d531499a4760405160405180910390a350565b6003600083815260200190815260200160002060030160149054906101000a900460ff166113a9576040517f08c379a00000000000000000000000000000000000000000000000000000000081526004016113a090612e7a565b60405180910390fd5b600260008273ffffffffffffffffffffffffffffffffffffffff1673ffffffffffffffffffffffffffffffffffffffff16815260200190815260200160002060070160009054906101000a900460ff16611438576040517f08c379a000000000000000000000000000000000000000000000000000000000815260040161142f90612f78565b60405180910390fd5b3373ffffffffffffffffffffffffffffffffffffffff166003600084815260200190815260200160002060030160009054906101000a900473ffffffffffffffffffffffffffffffffffffffff1673ffffffffffffffffffffffffffffffffffffffff16146114dc576040517f08c379a00000000000000000000000000000000000000000000000000000000081526004016114d390612fe4565b60405180910390fd5b600260008273ffffffffffffffffffffffffffffffffffffffff1673ffffffffffffffffffffffffffffffffffffffff168152602001908152602001600020600901600081548092919061152f90613033565b919050555060006003600084815260200190815260200160002060030160146101000a81548160ff0219169083151502179055508073ffffffffffffffffffffffffffffffffffffffff16827fcf346ab23a9abaabaa0eb4683b99ec1de094de5e7255af7623cbe740d4c0f16260405160405180910390a35050565b60008551116115ef576040517f08c379a00000000000000000000000000000000000000000000000000000000081526004016115e6906130c7565b60405180910390fd5b60008311611632576040517f08c379a000000000000000000000000000000000000000000000000000000000815260040161162990613133565b60405180910390fd5b428111611674576040517f08c379a000000000000000000000000000000000000000000000000000000000815260040161166b9061319f565b60405180910390fd5b6004600081548092919061168790613033565b9190505550600060045490506040518061010001604052808781526020018681526020018581526020013373ffffffffffffffffffffffffffffffffffffffff1681526020016001151581526020016040518060400160405280600481526020017f6f70656e000000000000000000000000000000000000000000000000000000008152508152602001848152602001838152506003600083815260200190815260200160002060008201518160000190816117439190612d3a565b5060208201518160010190816117599190612d3a565b506040820151816002015560608201518160030160006101000a81548173ffffffffffffffffffffffffffffffffffffffff021916908373ffffffffffffffffffffffffffffffffffffffff16021790555060808201518160030160146101000a81548160ff02191690831515021790555060a08201518160040190816117e09190612d3a565b5060c08201518160050190805190602001906117fd929190611d21565b5060e08201518160060155905050807fed06d1e70f1faa0e1750def1b3a1d942390a8f47d03679c9025a1c38dc34fe7b8760405161183b9190612e0c565b60405180910390a2505050505050565b611853611bd7565b600073ffffffffffffffffffffffffffffffffffffffff168173ffffffffffffffffffffffffffffffffffffffff16036118c2576040517f08c379a00000000000000000000000000000000000000000000000000000000081526004016118b990613231565b60405180910390fd5b6118cb81611c55565b50565b60608060008060006060600060606000600360008b81526020019081526020016000209050806000018160010182600201548360030160009054906101000a900473ffffffffffffffffffffffffffffffffffffffff168460030160149054906101000a900460ff168560040186600601548760050187805461195090612869565b80601f016020809104026020016040519081016040528092919081815260200182805461197c90612869565b80156119c95780601f1061199e576101008083540402835291602001916119c9565b820191906000526020600020905b8154815290600101906020018083116119ac57829003601f168201915b505050505097508680546119dc90612869565b80601f0160208091040260200160405190810160405280929190818152602001828054611a0890612869565b8015611a555780601f10611a2a57610100808354040283529160200191611a55565b820191906000526020600020905b815481529060010190602001808311611a3857829003601f168201915b50505050509650828054611a6890612869565b80601f0160208091040260200160405190810160405280929190818152602001828054611a9490612869565b8015611ae15780601f10611ab657610100808354040283529160200191611ae1565b820191906000526020600020905b815481529060010190602001808311611ac457829003601f168201915b5050505050925080805480602002602001604051908101604052809291908181526020016000905b82821015611bb5578382906000526020600020018054611b2890612869565b80601f0160208091040260200160405190810160405280929190818152602001828054611b5490612869565b8015611ba15780601f10611b7657610100808354040283529160200191611ba1565b820191906000526020600020905b815481529060010190602001808311611b8457829003601f168201915b505050505081526020019060010190611b09565b5050505090509850985098509850985098509850985050919395975091939597565b611bdf611d19565b73ffffffffffffffffffffffffffffffffffffffff16611bfd6111a0565b73ffffffffffffffffffffffffffffffffffffffff1614611c53576040517f08c379a0000000000000000000000000000000000000000000000000000000008152600401611c4a9061329d565b60405180910390fd5b565b60008060009054906101000a900473ffffffffffffffffffffffffffffffffffffffff169050816000806101000a81548173ffffffffffffffffffffffffffffffffffffffff021916908373ffffffffffffffffffffffffffffffffffffffff1602179055508173ffffffffffffffffffffffffffffffffffffffff168173ffffffffffffffffffffffffffffffffffffffff167f8be0079c531659141344cd1fd0a4f28419497f9722a3daafe3b4186f6b6457e060405160405180910390a35050565b600033905090565b828054828255906000526020600020908101928215611d69579160200282015b82811115611d68578251829081611d589190612d3a565b5091602001919060010190611d41565b5b509050611d769190611d7a565b5090565b5b80821115611d9a5760008181611d919190611d9e565b50600101611d7b565b5090565b508054611daa90612869565b6000825580601f10611dbc5750611ddb565b601f016020900490600052602060002090810190611dda9190611dde565b5b50565b5b80821115611df7576000816000905550600101611ddf565b5090565b6000604051905090565b600080fd5b600080fd5b600073ffffffffffffffffffffffffffffffffffffffff82169050919050565b6000611e3a82611e0f565b9050919050565b611e4a81611e2f565b8114611e5557600080fd5b50565b600081359050611e6781611e41565b92915050565b600060208284031215611e8357611e82611e05565b5b6000611e9184828501611e58565b91505092915050565b600081519050919050565b600082825260208201905092915050565b60005b83811015611ed4578082015181840152602081019050611eb9565b60008484015250505050565b6000601f19601f8301169050919050565b6000611efc82611e9a565b611f068185611ea5565b9350611f16818560208601611eb6565b611f1f81611ee0565b840191505092915050565b600081519050919050565b600082825260208201905092915050565b6000819050602082019050919050565b600082825260208201905092915050565b6000611f7282611e9a565b611f7c8185611f56565b9350611f8c818560208601611eb6565b611f9581611ee0565b840191505092915050565b6000611fac8383611f67565b905092915050565b6000602082019050919050565b6000611fcc82611f2a565b611fd68185611f35565b935083602082028501611fe885611f46565b8060005b8581101561202457848403895281516120058582611fa0565b945061201083611fb4565b925060208a01995050600181019050611fec565b50829750879550505050505092915050565b60008115159050919050565b61204b81612036565b82525050565b6000819050919050565b61206481612051565b82525050565b6000610140820190508181036000830152612085818d611ef1565b90508181036020830152612099818c611ef1565b905081810360408301526120ad818b611ef1565b905081810360608301526120c1818a611ef1565b905081810360808301526120d58189611ef1565b905081810360a08301526120e98188611ef1565b905081810360c08301526120fd8187611fc1565b905061210c60e0830186612042565b61211a61010083018561205b565b61212861012083018461205b565b9b9a5050505050505050505050565b61214081612051565b811461214b57600080fd5b50565b60008135905061215d81612137565b92915050565b60006020828403121561217957612178611e05565b5b60006121878482850161214e565b91505092915050565b61219981611e2f565b82525050565b600060e08201905081810360008301526121b9818a611ef1565b905081810360208301526121cd8189611ef1565b90506121dc604083018861205b565b6121e96060830187612190565b6121f66080830186612042565b81810360a08301526122088185611ef1565b905061221760c083018461205b565b98975050505050505050565b600061012082019050818103600083015261223e818c611ef1565b90508181036020830152612252818b611ef1565b90508181036040830152612266818a611ef1565b9050818103606083015261227a8189611ef1565b9050818103608083015261228e8188611ef1565b905081810360a08301526122a28187611ef1565b90506122b160c0830186612042565b6122be60e083018561205b565b6122cc61010083018461205b565b9a9950505050505050505050565b60006020820190506122ef600083018461205b565b92915050565b600080fd5b600080fd5b7f4e487b7100000000000000000000000000000000000000000000000000000000600052604160045260246000fd5b61233782611ee0565b810181811067ffffffffffffffff82111715612356576123556122ff565b5b80604052505050565b6000612369611dfb565b9050612375828261232e565b919050565b600067ffffffffffffffff821115612395576123946122ff565b5b61239e82611ee0565b9050602081019050919050565b82818337600083830152505050565b60006123cd6123c88461237a565b61235f565b9050828152602081018484840111156123e9576123e86122fa565b5b6123f48482856123ab565b509392505050565b600082601f830112612411576124106122f5565b5b81356124218482602086016123ba565b91505092915050565b600067ffffffffffffffff821115612445576124446122ff565b5b602082029050602081019050919050565b600080fd5b600061246e6124698461242a565b61235f565b9050808382526020820190506020840283018581111561249157612490612456565b5b835b818110156124d857803567ffffffffffffffff8111156124b6576124b56122f5565b5b8086016124c389826123fc565b85526020850194505050602081019050612493565b5050509392505050565b600082601f8301126124f7576124f66122f5565b5b813561250784826020860161245b565b91505092915050565b600080600080600080600060e0888a03121561252f5761252e611e05565b5b600088013567ffffffffffffffff81111561254d5761254c611e0a565b5b6125598a828b016123fc565b975050602088013567ffffffffffffffff81111561257a57612579611e0a565b5b6125868a828b016123fc565b965050604088013567ffffffffffffffff8111156125a7576125a6611e0a565b5b6125b38a828b016123fc565b955050606088013567ffffffffffffffff8111156125d4576125d3611e0a565b5b6125e08a828b016123fc565b945050608088013567ffffffffffffffff81111561260157612600611e0a565b5b61260d8a828b016123fc565b93505060a088013567ffffffffffffffff81111561262e5761262d611e0a565b5b61263a8a828b016123fc565b92505060c088013567ffffffffffffffff81111561265b5761265a611e0a565b5b6126678a828b016124e2565b91505092959891949750929550565b600060208201905061268b6000830184612190565b92915050565b600080604083850312156126a8576126a7611e05565b5b60006126b68582860161214e565b92505060206126c785828601611e58565b9150509250929050565b600080600080600060a086880312156126ed576126ec611e05565b5b600086013567ffffffffffffffff81111561270b5761270a611e0a565b5b612717888289016123fc565b955050602086013567ffffffffffffffff81111561273857612737611e0a565b5b612744888289016123fc565b94505060406127558882890161214e565b935050606086013567ffffffffffffffff81111561277657612775611e0a565b5b612782888289016124e2565b92505060806127938882890161214e565b9150509295509295909350565b60006101008201905081810360008301526127bb818b611ef1565b905081810360208301526127cf818a611ef1565b90506127de604083018961205b565b6127eb6060830188612190565b6127f86080830187612042565b81810360a083015261280a8186611ef1565b905061281960c083018561205b565b81810360e083015261282b8184611fc1565b90509998505050505050505050565b7f4e487b7100000000000000000000000000000000000000000000000000000000600052602260045260246000fd5b6000600282049050600182168061288157607f821691505b6020821081036128945761289361283a565b5b50919050565b7f54616c656e74206e6f7420726567697374657265640000000000000000000000600082015250565b60006128d0601583611ea5565b91506128db8261289a565b602082019050919050565b600060208201905081810360008301526128ff816128c3565b9050919050565b7f4e616d652063616e6e6f7420626520656d707479000000000000000000000000600082015250565b600061293c601483611ea5565b915061294782612906565b602082019050919050565b6000602082019050818103600083015261296b8161292f565b9050919050565b7f47656e6465722063616e6e6f7420626520656d70747900000000000000000000600082015250565b60006129a8601683611ea5565b91506129b382612972565b602082019050919050565b600060208201905081810360008301526129d78161299b565b9050919050565b7f42697274686461792063616e6e6f7420626520656d7074790000000000000000600082015250565b6000612a14601883611ea5565b9150612a1f826129de565b602082019050919050565b60006020820190508181036000830152612a4381612a07565b9050919050565b7f506879736963616c20616464726573732063616e6e6f7420626520656d707479600082015250565b6000612a80602083611ea5565b9150612a8b82612a4a565b602082019050919050565b60006020820190508181036000830152612aaf81612a73565b9050919050565b7f476f7665726e6d656e742049442063616e6e6f7420626520656d707479000000600082015250565b6000612aec601d83611ea5565b9150612af782612ab6565b602082019050919050565b60006020820190508181036000830152612b1b81612adf565b9050919050565b7f4361726565722063616e6e6f7420626520656d70747900000000000000000000600082015250565b6000612b58601683611ea5565b9150612b6382612b22565b602082019050919050565b60006020820190508181036000830152612b8781612b4b565b9050919050565b60008190508160005260206000209050919050565b60006020601f8301049050919050565b600082821b905092915050565b600060088302612bf07fffffffffffffffffffffffffffffffffffffffffffffffffffffffffffffffff82612bb3565b612bfa8683612bb3565b95508019841693508086168417925050509392505050565b6000819050919050565b6000612c37612c32612c2d84612051565b612c12565b612051565b9050919050565b6000819050919050565b612c5183612c1c565b612c65612c5d82612c3e565b848454612bc0565b825550505050565b600090565b612c7a612c6d565b612c85818484612c48565b505050565b5b81811015612ca957612c9e600082612c72565b600181019050612c8b565b5050565b601f821115612cee57612cbf81612b8e565b612cc884612ba3565b81016020851015612cd7578190505b612ceb612ce385612ba3565b830182612c8a565b50505b505050565b600082821c905092915050565b6000612d1160001984600802612cf3565b1980831691505092915050565b6000612d2a8383612d00565b9150826002028217905092915050565b612d4382611e9a565b67ffffffffffffffff811115612d5c57612d5b6122ff565b5b612d668254612869565b612d71828285612cad565b600060209050601f831160018114612da45760008415612d92578287015190505b612d9c8582612d1e565b865550612e04565b601f198416612db286612b8e565b60005b82811015612dda57848901518255600182019150602085019450602081019050612db5565b86831015612df75784890151612df3601f891682612d00565b8355505b6001600288020188555050505b505050505050565b60006020820190508181036000830152612e268184611ef1565b905092915050565b7f50726f6a656374206973206e6f74206163746976650000000000000000000000600082015250565b6000612e64601583611ea5565b9150612e6f82612e2e565b602082019050919050565b60006020820190508181036000830152612e9381612e57565b9050919050565b7f4f6e6c792070726f6a65637420636c69656e742063616e20636c6f736520707260008201527f6f6a656374000000000000000000000000000000000000000000000000000000602082015250565b6000612ef6602583611ea5565b9150612f0182612e9a565b604082019050919050565b60006020820190508181036000830152612f2581612ee9565b9050919050565b7f54616c656e74206973206e6f7420766572696669656400000000000000000000600082015250565b6000612f62601683611ea5565b9150612f6d82612f2c565b602082019050919050565b60006020820190508181036000830152612f9181612f55565b9050919050565b7f4f6e6c792070726f6a65637420636c69656e742063616e2061737369676e0000600082015250565b6000612fce601e83611ea5565b9150612fd982612f98565b602082019050919050565b60006020820190508181036000830152612ffd81612fc1565b9050919050565b7f4e487b7100000000000000000000000000000000000000000000000000000000600052601160045260246000fd5b600061303e82612051565b91507fffffffffffffffffffffffffffffffffffffffffffffffffffffffffffffffff82036130705761306f613004565b5b600182019050919050565b7f5469746c652063616e6e6f7420626520656d7074790000000000000000000000600082015250565b60006130b1601583611ea5565b91506130bc8261307b565b602082019050919050565b600060208201905081810360008301526130e0816130a4565b9050919050565b7f427564676574206d7573742062652067726561746572207468616e2030000000600082015250565b600061311d601d83611ea5565b9150613128826130e7565b602082019050919050565b6000602082019050818103600083015261314c81613110565b9050919050565b7f446561646c696e65206d75737420626520696e20746865206675747572650000600082015250565b6000613189601e83611ea5565b915061319482613153565b602082019050919050565b600060208201905081810360008301526131b88161317c565b9050919050565b7f4f776e61626c653a206e6577206f776e657220697320746865207a65726f206160008201527f6464726573730000000000000000000000000000000000000000000000000000602082015250565b600061321b602683611ea5565b9150613226826131bf565b604082019050919050565b6000602082019050818103600083015261324a8161320e565b9050919050565b7f4f776e61626c653a2063616c6c6572206973206e6f7420746865206f776e6572600082015250565b6000613287602083611ea5565b915061329282613251565b602082019050919050565b600060208201905081810360008301526132b68161327a565b905091905056fea2646970667358221220805248b23bf92d39e8dd10d148548a0100f16d2d3ca75d3e6cd7f24397d5287d64736f6c63430008130033",
  "linkReferences": {},
  "deployedLinkReferences": {}
}