{
  "_format": "hh-sol-artifact-1",
  "contractName": "ConstructionTalent",
  "sourceName": "contracts/ConstructionTalent.sol",
  "abi": [
    {
      "inputs": [],
      "stateMutability": "nonpayable",
      "type": "constructor"
    },
    {
      "anonymous": false,
      "inputs": [
        {
          "indexed": true,
          "internalType": "address",
          "name": "previousOwner",
          "type": "address"
        },
        {
          "indexed": true,
          "internalType": "address",
          "name": "newOwner",
          "type": "address"
        }
      ],
      "name": "OwnershipTransferred",
      "type": "event"
    },
    {
      "anonymous": false,
      "inputs": [
        {
          "indexed": true,
          "internalType": "uint256",
          "name": "projectId",
          "type": "uint256"
        },
        {
          "indexed": true,
          "internalType": "address",
          "name": "talent",
          "type": "address"
        }
      ],
      "name": "ProjectAssigned",
      "type": "event"
    },
    {
      "anonymous": false,
      "inputs": [
        {
          "indexed": true,
          "internalType": "uint256",
          "name": "projectId",
          "type": "uint256"
        },
        {
          "indexed": false,
          "internalType": "string",
          "name": "title",
          "type": "string"
        }
      ],
      "name": "ProjectCreated",
      "type": "event"
    },
    {
      "anonymous": false,
      "inputs": [
        {
          "indexed": true,
          "internalType": "address",
          "name": "talent",
          "type": "address"
        },
        {
          "indexed": false,
          "internalType": "string",
          "name": "name",
          "type": "string"
        }
      ],
      "name": "TalentRegistered",
      "type": "event"
    },
    {
      "anonymous": false,
      "inputs": [
        {
          "indexed": true,
          "internalType": "address",
          "name": "talent",
          "type": "address"
        }
      ],
      "name": "TalentVerified",
      "type": "event"
    },
    {
      "inputs": [
        {
          "internalType": "uint256",
          "name": "_projectId",
          "type": "uint256"
        },
        {
          "internalType": "address",
          "name": "_talent",
          "type": "address"
        }
      ],
      "name": "assignProject",
      "outputs": [],
      "stateMutability": "nonpayable",
      "type": "function"
    },
    {
      "inputs": [
        {
          "internalType": "string",
          "name": "_title",
          "type": "string"
        },
        {
          "internalType": "string",
          "name": "_description",
          "type": "string"
        },
        {
          "internalType": "uint256",
          "name": "_budget",
          "type": "uint256"
        },
        {
          "internalType": "uint256[]",
          "name": "_requiredSkills",
          "type": "uint256[]"
        },
        {
          "internalType": "uint256",
          "name": "_deadline",
          "type": "uint256"
        }
      ],
      "name": "createProject",
      "outputs": [],
      "stateMutability": "nonpayable",
      "type": "function"
    },
    {
      "inputs": [
        {
          "internalType": "uint256",
          "name": "_projectId",
          "type": "uint256"
        }
      ],
      "name": "getProjectInfo",
      "outputs": [
        {
          "internalType": "string",
          "name": "title",
          "type": "string"
        },
        {
          "internalType": "string",
          "name": "description",
          "type": "string"
        },
        {
          "internalType": "uint256",
          "name": "budget",
          "type": "uint256"
        },
        {
          "internalType": "address",
          "name": "client",
          "type": "address"
        },
        {
          "internalType": "bool",
          "name": "isActive",
          "type": "bool"
        },
        {
          "internalType": "uint256",
          "name": "deadline",
          "type": "uint256"
        }
      ],
      "stateMutability": "view",
      "type": "function"
    },
    {
      "inputs": [
        {
          "internalType": "address",
          "name": "_talent",
          "type": "address"
        }
      ],
      "name": "getTalentInfo",
      "outputs": [
        {
          "internalType": "string",
          "name": "name",
          "type": "string"
        },
        {
          "internalType": "string",
          "name": "skills",
          "type": "string"
        },
        {
          "internalType": "uint256",
          "name": "experience",
          "type": "uint256"
        },
        {
          "internalType": "bool",
          "name": "isVerified",
          "type": "bool"
        },
        {
          "internalType": "uint256",
          "name": "rating",
          "type": "uint256"
        },
        {
          "internalType": "uint256",
          "name": "projectCount",
          "type": "uint256"
        }
      ],
      "stateMutability": "view",
      "type": "function"
    },
    {
      "inputs": [],
      "name": "owner",
      "outputs": [
        {
          "internalType": "address",
          "name": "",
          "type": "address"
        }
      ],
      "stateMutability": "view",
      "type": "function"
    },
    {
      "inputs": [],
      "name": "projectCount",
      "outputs": [
        {
          "internalType": "uint256",
          "name": "",
          "type": "uint256"
        }
      ],
      "stateMutability": "view",
      "type": "function"
    },
    {
      "inputs": [
        {
          "internalType": "uint256",
          "name": "",
          "type": "uint256"
        }
      ],
      "name": "projects",
      "outputs": [
        {
          "internalType": "string",
          "name": "title",
          "type": "string"
        },
        {
          "internalType": "string",
          "name": "description",
          "type": "string"
        },
        {
          "internalType": "uint256",
          "name": "budget",
          "type": "uint256"
        },
        {
          "internalType": "address",
          "name": "client",
          "type": "address"
        },
        {
          "internalType": "bool",
          "name": "isActive",
          "type": "bool"
        },
        {
          "internalType": "uint256",
          "name": "deadline",
          "type": "uint256"
        }
      ],
      "stateMutability": "view",
      "type": "function"
    },
    {
      "inputs": [
        {
          "internalType": "string",
          "name": "_name",
          "type": "string"
        },
        {
          "internalType": "string",
          "name": "_skills",
          "type": "string"
        },
        {
          "internalType": "uint256",
          "name": "_experience",
          "type": "uint256"
        }
      ],
      "name": "registerTalent",
      "outputs": [],
      "stateMutability": "nonpayable",
      "type": "function"
    },
    {
      "inputs": [],
      "name": "renounceOwnership",
      "outputs": [],
      "stateMutability": "nonpayable",
      "type": "function"
    },
    {
      "inputs": [
        {
          "internalType": "address",
          "name": "",
          "type": "address"
        }
      ],
      "name": "talents",
      "outputs": [
        {
          "internalType": "string",
          "name": "name",
          "type": "string"
        },
        {
          "internalType": "string",
          "name": "skills",
          "type": "string"
        },
        {
          "internalType": "uint256",
          "name": "experience",
          "type": "uint256"
        },
        {
          "internalType": "bool",
          "name": "isVerified",
          "type": "bool"
        },
        {
          "internalType": "uint256",
          "name": "rating",
          "type": "uint256"
        },
        {
          "internalType": "uint256",
          "name": "projectCount",
          "type": "uint256"
        }
      ],
      "stateMutability": "view",
      "type": "function"
    },
    {
      "inputs": [
        {
          "internalType": "address",
          "name": "newOwner",
          "type": "address"
        }
      ],
      "name": "transferOwnership",
      "outputs": [],
      "stateMutability": "nonpayable",
      "type": "function"
    },
    {
      "inputs": [
        {
          "internalType": "address",
          "name": "_talent",
          "type": "address"
        }
      ],
      "name": "verifyTalent",
      "outputs": [],
      "stateMutability": "nonpayable",
      "type": "function"
    }
  ],
  "bytecode": "0x608060405234801561001057600080fd5b5061002d61002261003960201b60201c565b61004160201b60201c565b60018081905550610105565b600033905090565b60008060009054906101000a900473ffffffffffffffffffffffffffffffffffffffff169050816000806101000a81548173ffffffffffffffffffffffffffffffffffffffff021916908373ffffffffffffffffffffffffffffffffffffffff1602179055508173ffffffffffffffffffffffffffffffffffffffff168173ffffffffffffffffffffffffffffffffffffffff167f8be0079c531659141344cd1fd0a4f28419497f9722a3daafe3b4186f6b6457e060405160405180910390a35050565b6121d480620001156000396000f3fe608060405234801561001057600080fd5b50600436106100b45760003560e01c80638da5cb5b116100715780638da5cb5b1461019c578063981e9c2b146101ba57806398eb84f0146101d6578063f2490a76146101f2578063f2fde38b1461020e578063fabf59681461022a576100b4565b80630cf73f29146100b9578063107046bd146100ee57806329c0d508146101235780632e3e07fe1461015857806336fbad2614610174578063715018a614610192575b600080fd5b6100d360048036038101906100ce9190611359565b61025f565b6040516100e59695949392919061144a565b60405180910390f35b610108600480360381019061010391906114e5565b610402565b60405161011a96959493929190611521565b60405180910390f35b61013d60048036038101906101389190611359565b61057b565b60405161014f9695949392919061144a565b60405180910390f35b610172600480360381019061016d9190611359565b6106d4565b005b61017c610802565b6040516101899190611590565b60405180910390f35b61019a610808565b005b6101a461081c565b6040516101b191906115ab565b60405180910390f35b6101d460048036038101906101cf91906115c6565b610845565b005b6101f060048036038101906101eb919061173b565b610aaa565b005b61020c6004803603810190610207919061188e565b610ccf565b005b61022860048036038101906102239190611359565b610f19565b005b610244600480360381019061023f91906114e5565b610f9c565b60405161025696959493929190611521565b60405180910390f35b6060806000806000806000600260008973ffffffffffffffffffffffffffffffffffffffff1673ffffffffffffffffffffffffffffffffffffffff1681526020019081526020016000209050806000018160010182600201548360030160009054906101000a900460ff16846005015485600601548580546102e09061198c565b80601f016020809104026020016040519081016040528092919081815260200182805461030c9061198c565b80156103595780601f1061032e57610100808354040283529160200191610359565b820191906000526020600020905b81548152906001019060200180831161033c57829003601f168201915b5050505050955084805461036c9061198c565b80601f01602080910402602001604051908101604052809291908181526020018280546103989061198c565b80156103e55780601f106103ba576101008083540402835291602001916103e5565b820191906000526020600020905b8154815290600101906020018083116103c857829003601f168201915b505050505094509650965096509650965096505091939550919395565b60036020528060005260406000206000915090508060000180546104259061198c565b80601f01602080910402602001604051908101604052809291908181526020018280546104519061198c565b801561049e5780601f106104735761010080835404028352916020019161049e565b820191906000526020600020905b81548152906001019060200180831161048157829003601f168201915b5050505050908060010180546104b39061198c565b80601f01602080910402602001604051908101604052809291908181526020018280546104df9061198c565b801561052c5780601f106105015761010080835404028352916020019161052c565b820191906000526020600020905b81548152906001019060200180831161050f57829003601f168201915b5050505050908060020154908060030160009054906101000a900473ffffffffffffffffffffffffffffffffffffffff16908060030160149054906101000a900460ff16908060050154905086565b600260205280600052604060002060009150905080600001805461059e9061198c565b80601f01602080910402602001604051908101604052809291908181526020018280546105ca9061198c565b80156106175780601f106105ec57610100808354040283529160200191610617565b820191906000526020600020905b8154815290600101906020018083116105fa57829003601f168201915b50505050509080600101805461062c9061198c565b80601f01602080910402602001604051908101604052809291908181526020018280546106589061198c565b80156106a55780601f1061067a576101008083540402835291602001916106a5565b820191906000526020600020905b81548152906001019060200180831161068857829003601f168201915b5050505050908060020154908060030160009054906101000a900460ff16908060050154908060060154905086565b6106dc611133565b6000600260008373ffffffffffffffffffffffffffffffffffffffff1673ffffffffffffffffffffffffffffffffffffffff1681526020019081526020016000206002015411610761576040517f08c379a000000000000000000000000000000000000000000000000000000000815260040161075890611a09565b60405180910390fd5b6001600260008373ffffffffffffffffffffffffffffffffffffffff1673ffffffffffffffffffffffffffffffffffffffff16815260200190815260200160002060030160006101000a81548160ff0219169083151502179055508073ffffffffffffffffffffffffffffffffffffffff167f811e0dd9bfafabaee3ae45680295c4a31f783e635a2a2199c0f79e0fbd2b0ed560405160405180910390a250565b60045481565b610810611133565b61081a60006111b1565b565b60008060009054906101000a900473ffffffffffffffffffffffffffffffffffffffff16905090565b6003600083815260200190815260200160002060030160149054906101000a900460ff166108a8576040517f08c379a000000000000000000000000000000000000000000000000000000000815260040161089f90611a75565b60405180910390fd5b600260008273ffffffffffffffffffffffffffffffffffffffff1673ffffffffffffffffffffffffffffffffffffffff16815260200190815260200160002060030160009054906101000a900460ff16610937576040517f08c379a000000000000000000000000000000000000000000000000000000000815260040161092e90611ae1565b60405180910390fd5b3373ffffffffffffffffffffffffffffffffffffffff166003600084815260200190815260200160002060030160009054906101000a900473ffffffffffffffffffffffffffffffffffffffff1673ffffffffffffffffffffffffffffffffffffffff16146109db576040517f08c379a00000000000000000000000000000000000000000000000000000000081526004016109d290611b4d565b60405180910390fd5b600260008273ffffffffffffffffffffffffffffffffffffffff1673ffffffffffffffffffffffffffffffffffffffff1681526020019081526020016000206006016000815480929190610a2e90611b9c565b919050555060006003600084815260200190815260200160002060030160146101000a81548160ff0219169083151502179055508073ffffffffffffffffffffffffffffffffffffffff16827fcf346ab23a9abaabaa0eb4683b99ec1de094de5e7255af7623cbe740d4c0f16260405160405180910390a35050565b6000835111610aee576040517f08c379a0000000000000000000000000000000000000000000000000000000008152600401610ae590611c30565b60405180910390fd5b6000825111610b32576040517f08c379a0000000000000000000000000000000000000000000000000000000008152600401610b2990611c9c565b60405180910390fd5b6040518060e00160405280848152602001838152602001828152602001600015158152602001600067ffffffffffffffff811115610b7357610b72611610565b5b604051908082528060200260200182016040528015610ba15781602001602082028036833780820191505090505b508152602001600081526020016000815250600260003373ffffffffffffffffffffffffffffffffffffffff1673ffffffffffffffffffffffffffffffffffffffff1681526020019081526020016000206000820151816000019081610c079190611e68565b506020820151816001019081610c1d9190611e68565b506040820151816002015560608201518160030160006101000a81548160ff0219169083151502179055506080820151816004019080519060200190610c6492919061127d565b5060a0820151816005015560c082015181600601559050503373ffffffffffffffffffffffffffffffffffffffff167f8aaa7e65010b5fef229de41164868c878088a9c83257339eaae40eeb2f6732d584604051610cc29190611f3a565b60405180910390a2505050565b6000855111610d13576040517f08c379a0000000000000000000000000000000000000000000000000000000008152600401610d0a90611fa8565b60405180910390fd5b60008311610d56576040517f08c379a0000000000000000000000000000000000000000000000000000000008152600401610d4d90612014565b60405180910390fd5b428111610d98576040517f08c379a0000000000000000000000000000000000000000000000000000000008152600401610d8f90612080565b60405180910390fd5b60046000815480929190610dab90611b9c565b91905055506040518060e001604052808681526020018581526020018481526020013373ffffffffffffffffffffffffffffffffffffffff168152602001600115158152602001838152602001828152506003600060045481526020019081526020016000206000820151816000019081610e269190611e68565b506020820151816001019081610e3c9190611e68565b506040820151816002015560608201518160030160006101000a81548173ffffffffffffffffffffffffffffffffffffffff021916908373ffffffffffffffffffffffffffffffffffffffff16021790555060808201518160030160146101000a81548160ff02191690831515021790555060a0820151816004019080519060200190610eca92919061127d565b5060c082015181600501559050506004547fed06d1e70f1faa0e1750def1b3a1d942390a8f47d03679c9025a1c38dc34fe7b86604051610f0a9190611f3a565b60405180910390a25050505050565b610f21611133565b600073ffffffffffffffffffffffffffffffffffffffff168173ffffffffffffffffffffffffffffffffffffffff1603610f90576040517f08c379a0000000000000000000000000000000000000000000000000000000008152600401610f8790612112565b60405180910390fd5b610f99816111b1565b50565b6060806000806000806000600360008981526020019081526020016000209050806000018160010182600201548360030160009054906101000a900473ffffffffffffffffffffffffffffffffffffffff168460030160149054906101000a900460ff1685600501548580546110119061198c565b80601f016020809104026020016040519081016040528092919081815260200182805461103d9061198c565b801561108a5780601f1061105f5761010080835404028352916020019161108a565b820191906000526020600020905b81548152906001019060200180831161106d57829003601f168201915b5050505050955084805461109d9061198c565b80601f01602080910402602001604051908101604052809291908181526020018280546110c99061198c565b80156111165780601f106110eb57610100808354040283529160200191611116565b820191906000526020600020905b8154815290600101906020018083116110f957829003601f168201915b505050505094509650965096509650965096505091939550919395565b61113b611275565b73ffffffffffffffffffffffffffffffffffffffff1661115961081c565b73ffffffffffffffffffffffffffffffffffffffff16146111af576040517f08c379a00000000000000000000000000000000000000000000000000000000081526004016111a69061217e565b60405180910390fd5b565b60008060009054906101000a900473ffffffffffffffffffffffffffffffffffffffff169050816000806101000a81548173ffffffffffffffffffffffffffffffffffffffff021916908373ffffffffffffffffffffffffffffffffffffffff1602179055508173ffffffffffffffffffffffffffffffffffffffff168173ffffffffffffffffffffffffffffffffffffffff167f8be0079c531659141344cd1fd0a4f28419497f9722a3daafe3b4186f6b6457e060405160405180910390a35050565b600033905090565b8280548282559060005260206000209081019282156112b9579160200282015b828111156112b857825182559160200191906001019061129d565b5b5090506112c691906112ca565b5090565b5b808211156112e35760008160009055506001016112cb565b5090565b6000604051905090565b600080fd5b600080fd5b600073ffffffffffffffffffffffffffffffffffffffff82169050919050565b6000611326826112fb565b9050919050565b6113368161131b565b811461134157600080fd5b50565b6000813590506113538161132d565b92915050565b60006020828403121561136f5761136e6112f1565b5b600061137d84828501611344565b91505092915050565b600081519050919050565b600082825260208201905092915050565b60005b838110156113c05780820151818401526020810190506113a5565b60008484015250505050565b6000601f19601f8301169050919050565b60006113e882611386565b6113f28185611391565b93506114028185602086016113a2565b61140b816113cc565b840191505092915050565b6000819050919050565b61142981611416565b82525050565b60008115159050919050565b6114448161142f565b82525050565b600060c082019050818103600083015261146481896113dd565b9050818103602083015261147881886113dd565b90506114876040830187611420565b611494606083018661143b565b6114a16080830185611420565b6114ae60a0830184611420565b979650505050505050565b6114c281611416565b81146114cd57600080fd5b50565b6000813590506114df816114b9565b92915050565b6000602082840312156114fb576114fa6112f1565b5b6000611509848285016114d0565b91505092915050565b61151b8161131b565b82525050565b600060c082019050818103600083015261153b81896113dd565b9050818103602083015261154f81886113dd565b905061155e6040830187611420565b61156b6060830186611512565b611578608083018561143b565b61158560a0830184611420565b979650505050505050565b60006020820190506115a56000830184611420565b92915050565b60006020820190506115c06000830184611512565b92915050565b600080604083850312156115dd576115dc6112f1565b5b60006115eb858286016114d0565b92505060206115fc85828601611344565b9150509250929050565b600080fd5b600080fd5b7f4e487b7100000000000000000000000000000000000000000000000000000000600052604160045260246000fd5b611648826113cc565b810181811067ffffffffffffffff8211171561166757611666611610565b5b80604052505050565b600061167a6112e7565b9050611686828261163f565b919050565b600067ffffffffffffffff8211156116a6576116a5611610565b5b6116af826113cc565b9050602081019050919050565b82818337600083830152505050565b60006116de6116d98461168b565b611670565b9050828152602081018484840111156116fa576116f961160b565b5b6117058482856116bc565b509392505050565b600082601f83011261172257611721611606565b5b81356117328482602086016116cb565b91505092915050565b600080600060608486031215611754576117536112f1565b5b600084013567ffffffffffffffff811115611772576117716112f6565b5b61177e8682870161170d565b935050602084013567ffffffffffffffff81111561179f5761179e6112f6565b5b6117ab8682870161170d565b92505060406117bc868287016114d0565b9150509250925092565b600067ffffffffffffffff8211156117e1576117e0611610565b5b602082029050602081019050919050565b600080fd5b600061180a611805846117c6565b611670565b9050808382526020820190506020840283018581111561182d5761182c6117f2565b5b835b81811015611856578061184288826114d0565b84526020840193505060208101905061182f565b5050509392505050565b600082601f83011261187557611874611606565b5b81356118858482602086016117f7565b91505092915050565b600080600080600060a086880312156118aa576118a96112f1565b5b600086013567ffffffffffffffff8111156118c8576118c76112f6565b5b6118d48882890161170d565b955050602086013567ffffffffffffffff8111156118f5576118f46112f6565b5b6119018882890161170d565b9450506040611912888289016114d0565b935050606086013567ffffffffffffffff811115611933576119326112f6565b5b61193f88828901611860565b9250506080611950888289016114d0565b9150509295509295909350565b7f4e487b7100000000000000000000000000000000000000000000000000000000600052602260045260246000fd5b600060028204905060018216806119a457607f821691505b6020821081036119b7576119b661195d565b5b50919050565b7f54616c656e74206e6f7420726567697374657265640000000000000000000000600082015250565b60006119f3601583611391565b91506119fe826119bd565b602082019050919050565b60006020820190508181036000830152611a22816119e6565b9050919050565b7f50726f6a656374206973206e6f74206163746976650000000000000000000000600082015250565b6000611a5f601583611391565b9150611a6a82611a29565b602082019050919050565b60006020820190508181036000830152611a8e81611a52565b9050919050565b7f54616c656e74206973206e6f7420766572696669656400000000000000000000600082015250565b6000611acb601683611391565b9150611ad682611a95565b602082019050919050565b60006020820190508181036000830152611afa81611abe565b9050919050565b7f4f6e6c792070726f6a65637420636c69656e742063616e2061737369676e0000600082015250565b6000611b37601e83611391565b9150611b4282611b01565b602082019050919050565b60006020820190508181036000830152611b6681611b2a565b9050919050565b7f4e487b7100000000000000000000000000000000000000000000000000000000600052601160045260246000fd5b6000611ba782611416565b91507fffffffffffffffffffffffffffffffffffffffffffffffffffffffffffffffff8203611bd957611bd8611b6d565b5b600182019050919050565b7f4e616d652063616e6e6f7420626520656d707479000000000000000000000000600082015250565b6000611c1a601483611391565b9150611c2582611be4565b602082019050919050565b60006020820190508181036000830152611c4981611c0d565b9050919050565b7f536b696c6c732063616e6e6f7420626520656d70747900000000000000000000600082015250565b6000611c86601683611391565b9150611c9182611c50565b602082019050919050565b60006020820190508181036000830152611cb581611c79565b9050919050565b60008190508160005260206000209050919050565b60006020601f8301049050919050565b600082821b905092915050565b600060088302611d1e7fffffffffffffffffffffffffffffffffffffffffffffffffffffffffffffffff82611ce1565b611d288683611ce1565b95508019841693508086168417925050509392505050565b6000819050919050565b6000611d65611d60611d5b84611416565b611d40565b611416565b9050919050565b6000819050919050565b611d7f83611d4a565b611d93611d8b82611d6c565b848454611cee565b825550505050565b600090565b611da8611d9b565b611db3818484611d76565b505050565b5b81811015611dd757611dcc600082611da0565b600181019050611db9565b5050565b601f821115611e1c57611ded81611cbc565b611df684611cd1565b81016020851015611e05578190505b611e19611e1185611cd1565b830182611db8565b50505b505050565b600082821c905092915050565b6000611e3f60001984600802611e21565b1980831691505092915050565b6000611e588383611e2e565b9150826002028217905092915050565b611e7182611386565b67ffffffffffffffff811115611e8a57611e89611610565b5b611e94825461198c565b611e9f828285611ddb565b600060209050601f831160018114611ed25760008415611ec0578287015190505b611eca8582611e4c565b865550611f32565b601f198416611ee086611cbc565b60005b82811015611f0857848901518255600182019150602085019450602081019050611ee3565b86831015611f255784890151611f21601f891682611e2e565b8355505b6001600288020188555050505b505050505050565b60006020820190508181036000830152611f5481846113dd565b905092915050565b7f5469746c652063616e6e6f7420626520656d7074790000000000000000000000600082015250565b6000611f92601583611391565b9150611f9d82611f5c565b602082019050919050565b60006020820190508181036000830152611fc181611f85565b9050919050565b7f427564676574206d7573742062652067726561746572207468616e2030000000600082015250565b6000611ffe601d83611391565b915061200982611fc8565b602082019050919050565b6000602082019050818103600083015261202d81611ff1565b9050919050565b7f446561646c696e65206d75737420626520696e20746865206675747572650000600082015250565b600061206a601e83611391565b915061207582612034565b602082019050919050565b600060208201905081810360008301526120998161205d565b9050919050565b7f4f776e61626c653a206e6577206f776e657220697320746865207a65726f206160008201527f6464726573730000000000000000000000000000000000000000000000000000602082015250565b60006120fc602683611391565b9150612107826120a0565b604082019050919050565b6000602082019050818103600083015261212b816120ef565b9050919050565b7f4f776e61626c653a2063616c6c6572206973206e6f7420746865206f776e6572600082015250565b6000612168602083611391565b915061217382612132565b602082019050919050565b600060208201905081810360008301526121978161215b565b905091905056fea2646970667358221220db9aa2fec049ad79ab01d688920221f74c92ecb5be9ffc48b82633780e1a676364736f6c63430008130033",
  "linkReferences": {},
  "deployedLinkReferences": {}
}